:020000040002F8
:10600000905F002015F202006F730200D37302004C
:106010007B740200AB7602004F78020000000000A3
:10602000000000000000000000000000EF78020007
:106030001F790200000000005B7A0200977A0200DC
:106040006FEA0200BB7A020085D802009F7B020043
:10605000E77D0200337E0200B3840200BF860200A7
:106060005997020061970200C7860200EB8D02007B
:10607000A38F02004F95020013A4020003AA02009E
:10608000C7B102000B9D0200DBC90200FFD702006E
:10609000779D020023D802006FB8020083D8020067
:1060A000D3ED02002DF1020073F1020083F1020032
:1060B000D3F10200DBF2020000000000000000004B
:1060C000E9F20200EBF20200EDF20200EFF2020050
:1060D000F1F20200F3F20200F5F20200F7F2020020
:1060E000F9F20200FBF20200FDF2020000000000E3
:1060F00000000000FFF202000000000001F30200B7
:10610000000000000000000000000000000000008F
:10611000000000000000000000000000000000007F
:10612000000000000000000000000000000000006F
:10613000000000000000000000000000000000005F
:10614000000000000000000000000000000000004F
:10615000000000000000000000000000000000003F
:10616000000000000000000000000000000000002F
:10617000000000000000000000000000000000001F
:10618000000000000000000000000000000000000F
:1061900000000000000000000000000000000000FF
:1061A00000000000000000000000000000000000EF
:1061B00000000000000000000000000000000000DF
:1061C00000000000000000000000000000000000CF
:1061D00000000000000000000000000000000000BF
:1061E00000000000000000000000000000000000AF
:1061F000000000000000000000000000000000009F
:106200002DE9F84F74A7A2B0D7E90045CDE90045C4
:106210002C9EDFF8307C04918DF843605FF0000124
:106220006FA40D9112944FF0FF3682469046994626
:106230000FE0C3462C461BF8011B0498D0470028EA
:10624000049000F0B2800D98401C641E0D90F2D1B5
:10625000A84498F80000252807D10021079108914B
:1062600009910A910B910C910DE06A463146404626
:1062700001F01DF8050001D10D98B5E0D9D5012533
:10628000E6E741F0010118F8010F2028F9D0232892
:106290000CD02B2804D02D2805D0302809D086E03A
:1062A00041F00201EFE741F00401ECE741F00801A1
:1062B000E9E741F01001E6E700200F900AE00F98AF
:1062C000B84205DA00EB800302EB4302303A0F924A
:1062D00008F1010898F80020A2F130000A28EED356
:1062E00098F800002E2818BF0E9629D118F8010F33
:1062F0002A280BD1D9F80000C9F8000008F10108DC
:1063000050F8042BC9F800000E9219E02D280CBF9C
:1063100018F8010B002000220E920BE040B90E9AF3
:10632000BA4205DA02EB820403EB4403303B0E93DE
:1063300008F1010898F80030A3F130020A2AEDD3E1
:10634000ADF84010129898F8001000F0BBFF08B1AB
:1063500018F8010B8DF842009DF84200682804BF30
:1063600098F80010682903D162208DF8420008E0F7
:106370006C2804BF98F800006C2804D171218DF8B6
:10638000421008F1010813A806904A4618F8013B8C
:1063900002A9504600F068F838B913AA02A950467D
:1063A00000F0CAF900287FF554AF30461CE02A28D7
:1063B00082D1D9F80020C9F8002052F8040BC9F89E
:1063C000002000280F9003D540420F9041F00401B7
:1063D00008F1010884E70000000000000000000050
:1063E000686A6C747A4C000023B0BDE8F08F6228B4
:1063F00020D0682811D06A2803D06C2827D07128B3
:1064000025D10868C01D20F007000860D0E90023EE
:1064100008300860194610467047002A0A680A606A
:10642000106803D0121D0A6000B217E0121D0A6046
:1064300080B217E0002A0A680A60106803D0121DB3
:106440000A6040B20AE0121D0A60C0B20AE0002AE7
:106450000A680A60106803D0121D0A60C1177047ED
:10646000121D0A60002170477CB50D4611461C467E
:106470002E69B4F1250200F04D811C3A00F08680AF
:10648000121F022A40F282800E3A00F00781521F4A
:106490005AD0093A7AD0921E16D0521E35D0521ECA
:1064A000022A73D9121F30D0521F00F09A80521E58
:1064B0004AD0521E00F0E480D21E00F0FD80921EF1
:1064C00042D0D21E40D02BE195F83A206C2A09D058
:1064D0006869421C6A610A680A6052F8043B0A60F3
:1064E000335427E10A680A6052F8043B0A6000212D
:1064F000009301914FF0FF322A6329466A4600F06B
:1065000096F9002840F1168101E195F83A00012240
:10651000FFF76DFFC5E900010023994204DA6869BD
:10652000411C69612D210DE0288F810704D5686920
:10653000411C69612B2105E0C00722D56869411C17
:106540006961202131541CE095F83A000022FFF7E0
:106550004EFFC5E9000195F83800010711D5D5E9CE
:1065600000230020834208BF82420AD044F020006A
:10657000782806D1686930213154401C411C69617A
:106580003454214668693044E86083E00868C01DDF
:1065900020F007000860D0E9002308300860C5E952
:1065A0000023D5E90001C80F04D06869411C696166
:1065B0002D210DE0288F810704D56869411C696190
:1065C0002B2105E0C00704D56869411C69612021C1
:1065D000315468693044E8602146284600F032FAB8
:1065E000A8E005F13A02507820B14FF0FF340FF6E1
:1065F000243070E01078622808D0682824D06A28F7
:1066000012D06C282ED071280ED02BE00A680A60B8
:1066100052F8040B0A6020B94FF0FF340FF60C302B
:1066200059E0E96A017085E00A680A6052F8040BD3
:106630000A6020B94FF0FF340FF6F0204BE0EA6A11
:10664000D317C0E9002375E00A680A6052F8040B0A
:106650000A6020B94FF0FF340FF6D0203BE0E96A22
:10666000018067E00A680A6052F8040B0A6020B9EA
:106670004FF0FF340FF6B4202DE0E96A016059E0D5
:106680000A680A6052F8040B0A600021C5E900019B
:10669000EE607821284600F029F94BE06C2285F85D
:1066A0003A200B680B6053F8042B0B6052BB4FF081
:1066B000FF340FF6AC200EE095F83A206C2AF0D0AB
:1066C0000868086050F8044B0860EC603CB94FF073
:1066D000FF340FF6702000F00FFE201A76BD2E6BEF
:1066E000002E04D5204600F027FE044608E032467E
:1066F0000021204600F03CFE002814BF041B344655
:10670000AC6117E0294600F092F8002812D54FF04E
:10671000FF3076BD6869411C69612521315409E06B
:106720006969481C686125227254210002D0411C0D
:1067300069613454002076BD2DE9F0410E460546CE
:10674000716B7069B46A091A306A091AB069091A5A
:10675000706A091AF069091A96F838000C1B41078B
:1067600090460DD4002C0BDD2746B0682021A847A9
:106770000028B06057D0F06A401C7F1EF062F4D150
:10678000736942463146284600F0ACFC00284AD1E5
:10679000376A002F0ADDB0683021A8470028B060B2
:1067A00041D0F06A401C7F1EF062F4D1B369F268F8
:1067B0003146284600F096FCA8BB776A002F09DD19
:1067C000B0683021A847B06068B3F06A401C7F1EF3
:1067D000F062F5D1F068B169F36942183146284694
:1067E00000F080FCF8B9B76A002F09DDB0683021ED
:1067F000A847B060B8B1F06A401C7F1EF062F5D1C6
:1068000096F8380041070BD5002C09DDB06820212F
:10681000A847B06038B1F06A401C641EF062F5D140
:106820000020BDE8F0814FF0FF30BDE8F0812DE998
:10683000F8470D46A3B02F6B002F8146904648BF06
:106840006FF0004700F0C0FD696B40180FF62C1187
:106850008128D1E90023CDE9012328BF4FF0FF3083
:106860003ED20024002F2FDDD8F8001001AA684680
:1068700000F01FFD0646002E35D4D8F8000008B9F8
:10688000761E30D4B7421FDB6869301881280AD3DE
:106890000020686303AA29464846FFF74DFF04001D
:1068A00012D40020686103A8D5F814A032466946C6
:1068B000504400F08FFDB244C5F814A058F8040B02
:1068C000002818BFBF1BCDD12CB903AA29464846C2
:1068D000FFF732FF044614B9002068616863204660
:1068E00024B0BDE8F0874FF0FF34F8E72DE9FC470E
:1068F00007468A463E69BAF16F0F08BF082405D0E3
:106900004AF02001782914BF0A2410243C25D7E935
:106910000023BAF1640F18BFBAF1690F9046994687
:1069200006D100218B4203DAD8F1000869EB49094E
:106930000020814508BF80451FD1386BE8B9082C7D
:106940004CD197F83800010748D530203B2586F810
:106950003B0043E000280ED597F8380000F0140003
:10696000102808D17A6B7869121A386A121A511AEB
:106970000029C8BF3962BDE8F3878DF800A0404602
:1069800049462246E31700F079FD3032D0B26D1E41
:106990003A28019504DB9DF80000A0F151018A1806
:1069A0007255404649462246E31700F067FD80468F
:1069B00089460020814508BF804503D0F8687119D9
:1069C0008842DCD3082C09D197F83800010705D597
:1069D000715D302902D06D1E30207055C5F13C012B
:1069E000B9617019F860386B8142B3DA411A3962C3
:1069F0004FF6EF70398F01403987BDE8F3872DE9F5
:106A0000D04306460F4614464FF00008DFF838948E
:106A100012E0E00707D542464B463046394600F0C3
:106A200045FE06460F464046494642464B4600F064
:106A30003DFE641080468946002CEAD13046394636
:106A4000BDE8D0832DE9F34F054641F020048DB019
:106A5000D5E90089612C02AE09D0286B002848BF17
:106A6000062003D408BF672C01D101202863D5E993
:106A7000002358004015401C0ED119030CD00320F0
:106A8000A8619DF8380061381A2802D20FF2F4612B
:106A900011E00FF2F4610EE058004015401C0FD1D8
:106AA00019030DD10320A8619DF8380061381A2818
:106AB00014D30FF2DC61E868032200F08BFCD3E111
:106AC000194621F00043B3F5801F10460DD2002770
:106AD000BB4208BFBA42019703D111E00FF2AC618B
:106AE000E9E701AA00F0B4FE0AE0DFF8607307EB03
:106AF0001352DFF85C3301921940DFF85833194321
:106B0000C5E90001612C0ED1E86830210170811CBB
:106B1000E9609DF8381061290CBF78215821417037
:106B20006869801C6861D5E900AB2BF00043002048
:106B30002AF00002834204BF8242002300F05A81FF
:106B4000612C40F0A980286B00284CBF2120401CFC
:106B500000904046009F7F1C49460022002300F021
:106B6000AFFED94601988DF8082038BF89F000495A
:106B7000001F0190002FD0460DF1090040F349811C
:106B800040F2FF71DFF8D0B20C910646404649460C
:106B90000022002300F0ACFE80F03A814800400D56
:106BA00000F11C0210D0002A0EDD0C98824205DB99
:106BB00009F0004040EA0B01002013E0A44808401F
:106BC00040EA025140460DE029F00043002028F041
:106BD0000002834208BF82420FBF40461C2240464B
:106BE00000F09EFE8046894600F038FFFF1F002F10
:106BF000044609DD00F050FF02460B464046494678
:106C000000F05CFF80468946F01D072104E004F097
:106C10000F0200F8012D2411002C01DD491EF6D5CC
:106C2000491E5CBF002200F8012DF9D5ECE00020E0
:106C3000194602AA0A4400E05B1E12F80149491EE7
:106C40008442F9D00F2804D10DF10900425C521C96
:106C50004254002904D50198001D02AE5B1C01902E
:106C6000591E12D49DF838007218147804F13008B7
:106C70005FFA88F4392CC4BFA0F13A04A044491E3D
:106C800002F80189F1D58DF83800286B002840F111
:106C9000B080591E2963ACE04046494600220023DB
:106CA00000F00EFE019938BF89F0004947F2975075
:106CB00041436A4A91FBF2F20192D2F1070204DDEC
:106CC00040464946FFF79BFE0AE0524200206449D5
:106CD000FFF795FE02460B464046494600F060FF2E
:106CE0008046662C286BDFF87CB106BF019F0A370F
:106CF00006273F18142FC8BF142730208DF808002E
:106D000089460DF1090000E03046002F34DD0646CB
:106D10004046494601F068F801460A4606F1080374
:106D200004200A26B2FBF6F606EB860EA2EB4E0214
:106D3000303203F8012C0A22B6FBF2F202EB820E8B
:106D4000A6EB4E063036401E03F8026DE9D1083F2F
:106D5000002F03F10806D7DD084601F059F8024676
:106D60000B464046494600F0A9FE00225B4600F073
:106D70009DFC80468946CBE70DF10901401A0DF1D3
:106D8000090604E00199491E401E0191761C3178E4
:106D90003029F7D0662C02D10199491C03E0652CFB
:106DA0000CBF012100212B6BCB189842B8BF431EAA
:106DB000002B1ED4834204DAF05C3528A8BF3920AA
:106DC00000DA30201946721E02EB010800E05B1E5B
:106DD00018F80199491E8145F9D0392802D1705C13
:106DE000401C7054002904D50198401C16465B1CB9
:106DF0000190019800B200901BB29DF83810324605
:106E0000284600F035F82FE0C61D002F3FF7BEAE34
:106E100030460DF10901401A009903468842C8BF67
:106E20000B46002B0DF109063FF52FAF8342BFF64D
:106E3000FEAE0DF10900C05C07287FF7F8AE0F2009
:106E4000F6E60000CBCCCC0C0000244002FCFFFF97
:106E5000FFFF0F800000E03F0000F07FA0860100F0
:106E60000000F03F84D797410FB0BDE8F08F0000DD
:106E70002DE9F84783B006468A461746984600F043
:106E80001AFAB8F1000F406A356B90F8009002DCF6
:106E90004FF00108BFA7BDF930404AF02000662836
:106EA00008BF641C15D0672840F0848014F1040FDB
:106EB000C0F28680AC4280F2838096F83800641C71
:106EC000010702D4A845B8BF454620B22D1A48BFD5
:106ED00000250FFA84FAF068B169BAF1000F25DCD9
:106EE0004A1C30234354002D03DC96F83800010778
:106EF00003D5F06800F80290521C15EB0A0FB8BFDA
:106F00006C4220B2441941424445B8BFA046B26128
:106F100071620FFA88F5F561F068B3692A4639465F
:106F2000184400F057FA641BB462C4E022B29045E2
:106F3000084417DA4246394600F04CFAB06940443A
:106F4000B061AAEB0801002D716203DC96F83810DD
:106F50000A0705D5F16801F80090F069401CF0615E
:106F6000B562A8E0394600F035FAB069002D50440A
:106F7000A8EB040803DC96F838100A0703D5F1687B
:106F800001F80090401CB0610FFA88F08542F0686B
:106F9000B369B8BFA8460FFA88F207EB0A01184494
:106FA00000F018FAB0690FFA88F10844B061681A65
:106FB000706280E0BAF1610F14D14FF0700A16E0F0
:106FC000A84504DA96F838100A0758BF45466D1EE2
:106FD00048BF0025BAF1670F14BF4FF0450A4FF0C4
:106FE000650A04E0BAF1410F08BF4FF0500AB169D9
:106FF000F368481CB061002D17F8012B5A5403DCCC
:1070000096F838100A071BD5F168431CB36101F8E4
:107010000090002D14DDA8F101080FFA88F08542D8
:10702000F068B8BFA8460FFA88F23946184400F055
:10703000D1F9B0690FFA88F108446D1AB061756230
:10704000F068B1690844002C80F800A003D42B211B
:107050004170811C03E02D2141706442811C00209D
:107060006A460AE023460A2493FBF4F404EB840501
:10707000A3EB450302F8013B401C24B2002CF1DCD9
:10708000012806DC4AF02002652A04BF302201F8FC
:10709000012B48B9302001F8010B07E0401E1DF814
:1070A0000020303201F8012B0028F7DCF068B269CB
:1070B0001044091AF16196F8380000F01400102805
:1070C0000DD17169B0694118706A4118F0694118B1
:1070D000B06A4118706B8142BCBF411A316204B082
:1070E000BDE8F087F8B505460E4617461C46002059
:1070F00074B117F8011BB068A847B06030B1F06AEE
:10710000401CF0620020641EF3D1F2BD4FF0FF304E
:10711000F2BD00007072696E74665F733A20256E6E
:1071200020646973616C6C6F776564007072696E5E
:1071300074663A2062616420256E20617267756D05
:10714000656E74007072696E74665F733A20626176
:107150006420257320617267756D656E7400000090
:107160007072696E74665F733A2062616420256C88
:107170007320617267756D656E7400000000000019
:10718000000000006E616E004E414E00696E6600A8
:10719000494E46003000F0B4024610689568131856
:1071A000506803EB5004C00721D54D441FE0F0BCEC
:1071B00002F10C00704713F8017B05F8017B491EB2
:1071C000F9D1A0B1B60813F8011B06F00306032E8F
:1071D00008BF13F8016B01EB06214942801C2944CA
:1071E00005D011F8016B05F8016B401EF9D1A342DF
:1071F000DDD013F8016B16F0030104BF13F8011B77
:10720000C91C30090F28DAD113F8010B0F30D6E76B
:10721000613807E005E0A0F161011A2901D20120DF
:10722000704741381A288041C00F7047A0F12101F2
:107230000F290AD3A0F13A02062A06D9A0F15B0170
:10724000062902D37B380428EDE7012070471B484C
:10725000704730B45368D418042B09DA41B105786B
:1072600004F8015B10F8015B15B15B1C491EF3E7E4
:10727000536030BC704738B514461D4661B1FFF706
:10728000E8FF61686A6B204690476FF00102811A3F
:1072900002D0491E03D005E06FF0010032BD4FF06F
:1072A000FF3032BD0021616032BDDA6B1047034B05
:1072B000E1E7024BF9E7024870470000E42F0020A5
:1072C000AC2F00200278C9B28A421AB11CBF10F854
:1072D000012FF9E718BF00207047B1F5807F02D376
:1072E0004FF0FF3070470170012070470078401E5A
:1072F0008041C043C00F704780B500B906A0054962
:107300000B681BB122220021984701E000F08DFD9F
:10731000222002BD803F0020636F6E73747261692A
:107320006E742068616E646C65723A2062616420DC
:107330006D6573736167650000F10103810704D017
:1073400010F8011B89B18107FAD10268B2F101314D
:10735000914311F0803F04BF50F8042FF6E710F876
:10736000011B11B110F8011BFBE7C01A7047FEE7C3
:10737000C9B2830706D0521E22D310F8013B9942AE
:10738000F7D11FE0083A13D302F1040241EA0121C8
:1073900041EA014150F8043B121F21BF4B40A3F1C9
:1073A000013C2CEA030C1CF0803FF3D0C9B2001F53
:1073B000083210F8013B521E28BF91EA030FF8D89B
:1073C00018BF0120401E704780B5FFF740FF006CDA
:1073D00002BDFEE762B38B0708D0521E11F8013BD5
:1073E00000F8013B00F024808B07F6D1830740F0C2
:1073F000208000BF103A07D330B4B1E83810103AFB
:10740000A0E83810F9D230BC530724BFB1E8081007
:10741000A0E8081044BF51F8043B40F8043BD207F1
:1074200024BF31F8022B20F8022B44BF0B780370E5
:107430007047121F17D35B0009D151F8043B20F8A5
:10744000023B1B0C121F20F8023BF6D20BE051F856
:10745000043B00F8013B1B0A20F8023B1B0C121FE7
:1074600000F8013BF3D238BF121D521E24BF11F8A1
:10747000013B00F8013BF8D87047FEE7B3BBD9B138
:10748000B2F5803F7DD2022A1ED98C46B1FBF2F1C3
:1074900002FB11C31B0443EA1043B3FBF2FC02FBE3
:1074A0001C3380B240EA0343B3FBF2F002FB10321C
:1074B00040EA0C4000237047022A05D98446B0FBFD
:1074C000F2F002FB10C270474AB105D100F0010290
:1074D00049085FEA3000704700220023704700F03F
:1074E000A7BC0B000200002100207047904271EB06
:1074F000030CF6D3B3F5803F2FD2F0B5B3FA83F780
:10750000B1FA81F4A7F10F0E3D1B5340CEF12006D6
:1075100002FA0EF2F3415340B5F10F0746D80F3C83
:107520002C444140C4F12006A040F1414140B1FB50
:10753000F3F603FB1611A2FB0645001BA94102D27C
:10754000761E8018594180EA010221FA0EF362FA90
:107550000EF200215A403046F0BD30B4B1FBF3FCCE
:1075600003FB1C11A2FB0C45001BA94103D2ACF18B
:10757000010C8018594130BC02460B466046002180
:107580007047B2F1807F65D3F0B5B2FA82F7B1FAF5
:1075900081F4C7F10F063D1B22FA06F307F1110E25
:1075A000F24120355A40B5F10F07B8D94140C4F136
:1075B0002006A040F1414140B1FBF3FC03FB1C114C
:1075C000A2FB0C45001BA94103D2BCF1010C8018A1
:1075D00059410F2F12D30F3FC90341EA5041B1FB6C
:1075E000F3F603FB1611A2FB0645D4EBC030A9410C
:1075F00002D2761E8018594146EACC3C07B341407E
:10760000C7F12006B840F1414140B1FBF3F603FB5E
:107610001611A2FB0645001BA94102D2761E801856
:10762000594180EA010221FA0EF3C7F1200462FAFF
:107630000EF20CFA07F05A402CFA04F13043F0BD78
:1076400080EA010221FA0EF3002162FA0EF260468E
:107650005A40F0BD8C46B1FBF2F102FB11C31B0294
:1076600043EA1063B3FBF2FC02FB1C331B024CEA3F
:10767000002043EA1063B3FBF2FC02FB1C331B0245
:107680004CEA002043EA1063B3FBF2FC02FB1C331C
:107690001B024CEA002043EA1063B3FBF2FC02FB3E
:1076A0001C324CEA002000237047FEE7B0B581EAA7
:1076B000030C0CF0004C40F2FF7515EA11541DBF8D
:1076C00015EA1357AC42AF4239E0E41923EA4553B7
:1076D00043F48013C90241F0004141EA505EC70201
:1076E0001100A7FB020200284FF00000EEFB012072
:1076F0004FF00001E3FB072118BF42F001024018E0
:1077000000214941E3FB0E01A4F580640F0302D27E
:1077100052004041494154F101046CDD470872F1C7
:10772000004250F1000051EB0451A1F580115CBF03
:1077300041EA0C01B0BD4CEA05510020B0BD05EA9C
:107740001357AC4214BFAF4241E050EA410E1CBF98
:1077500052EA430E02E061460020B0BD24423C44A0
:107760001BD15FEA070EF6D0090302BF01460020D5
:10777000AEF1140EB1FA81F7AEEB070401FA07FE81
:107780000C37C7F1200100FA07F7C8404EEA000E97
:1077900023EA455343F48013A2E733F00043B3FADE
:1077A00083F704BFB2FA82FE77440B3FE41BB7F1C4
:1077B000200E2FBF02FA0EF3BB40C7F1200E22FAB3
:1077C0000EFE38BF43EA0E03BA40641C82E750EA5B
:1077D000410E14BF52EA430E6FF000014FF4001740
:1077E00017EB430F8ABF194617EB410FB5E74CEA79
:1077F00005510020B0BDD4F10104B4F120070FDA27
:10780000C4F12007520828BF42F0010210FA07F520
:1078100001FA07F7E1BF2A43E0403843E1400FE0B7
:10782000352C98DCC7F1200452EA400220FA07F216
:1078300018BF42F0010231FA07F0A1400A430021CB
:1078400072F1004250F1000051EB0C01B0BDFEE7B7
:1078500010B5144600F002F8226010BDC1F30A53BF
:1078600043B14A0012F5001F28D2A3F2FE32A1EB69
:107870000251704750EA410C20D001F0004C31EA2F
:107880000C01B1FA81F204BFB0FA80F3D2180B3ABE
:10789000B2F120032CBF00FA03F1914041EA0C0140
:1078A0003EBFC2F1200C20FA0CF319439040524223
:1078B00040F2FD33D21A01EB0351704700227047AA
:1078C0004FF4001C1CEB410F94BF1CEB430F09E06D
:1078D00041EA030C50EA4C0C52EA0C0C03D29942D8
:1078E00008BF9042704714BF8B4282427047FEE748
:1078F0004FF4001C1CEB410F94BF1CEB430F09E03D
:1079000041EA030C50EA4C0C52EA0C0C03D28B42B5
:1079100008BF8242704714BF994290427047FEE709
:10792000124254D440F2FF7C1CEA11530FD063453D
:1079300031D09B1863453CBF01EB0251704701F009
:10794000004141EA0C510020AFF30080704750EA3B
:10795000410320D001F0004C91EA0C011CD0B1FA97
:1079600081F30B3B9A420DD9D21A994051EA0C018E
:10797000C3F1200C20FA0CFC61449840531C40F2E7
:10798000FF7CD7E7914041EA0C01C2F1200C20FABC
:107990000CF3194390407047B0FA80F31533202B55
:1079A000E0D3202AEED3203A203B9A4209D9D21ABA
:1079B00000FA03F141EA0C010020531C40F2FF7C65
:1079C000B8E700FA02F141EA0C0100207047524288
:1079D00040F2FF7C1CEA11530DD06345DBD0B2EBC3
:1079E000030C3CBFA1EB025170470CF1010221EAEC
:1079F000035141F4801150EA410CCCD001F0004C0D
:107A0000352A27DC30B481EA0C01B2F1200309DA0F
:107A1000C2F12003044601FA03F5D0402843D140C7
:107A20009C400CE0C3F12002450020FA03F418BF8B
:107A300044F0010421FA03F091400C43002174F159
:107A4000004550F1000051EB0C01244230BC7FF4A2
:107A50007BAF70476146002076E7FEE7C1F30A532B
:107A600040F2FE329B1A14DDD3F120034FEAE1729B
:107A700008DDC90241EA505141F00040D840801869
:107A80005040704703F2E13010B1D24382F0004021
:107A9000704700207047FEE7C11768B14840401AA0
:107AA000B0FA80F29040D21CC907C2F5846241EA64
:107AB000025202EBD02140057047FEE770B44FF050
:107AC000004591EA030F40F1B5816B40841A71EBD8
:107AD000030603D2001BB141121973414FF4001C7D
:107AE0001CEB410F34BF7CEB430442E00C0DA4EBD4
:107AF0001356352E4FDC45EAC323DB0A45EAC12184
:107B0000C912B6F120050DDD63FA05F6EB4086EAF1
:107B10000305124218BF45F00105C01851F10001DC
:107B20000CD213E062FA06F5F2405540F3415A4098
:107B3000B340F3405A408018594107D349085FEADF
:107B400030005FEA350528BF45F0010501F58011D9
:107B5000420875F1004250F1000041EB04514E0023
:107B600016F5001F70BC38BF70470020090D0905CD
:107B700070471CEB410F10D252EA43060BD0BCEB0E
:107B8000410F05D80C0DAB43661E342EB6DD02E066
:107B9000AB438018594170BC704770BC7047FEE71A
:107BA000F0B540F2FF7581EA030C0CF0004C15EAC9
:107BB00011541DBF15EA1357AC42AF42E5E0BC417A
:107BC000C1F31301C3F31303801A994143F48013E3
:107BD00004D2641E4000494180185941C90241EA5B
:107BE0005051B1FBF3F603FB1611A2FB0675D7EB60
:107BF000C020A94102D2761E80185941C90241EA2B
:107C00005051B1FBF3FE03FB1E11A2FB0E75D7EB27
:107C1000C020A94103D2AEF1010E8018594189025A
:107C200041EA9051760546EA8E2EB1FBF3F603FB4E
:107C30001611A2FB0675D7EB8020A94102D2761E51
:107C400080185941C90241EA50514EEA060EB1FB73
:107C5000F3F603FB1611A2FB0675D7EBC020A94172
:107C600002D2761E80185941C90241EA5051B1FB37
:107C7000F3F703FB1711A2FB0735D3EBC020A94193
:107C800067F100070CBF004247F0010766F3D527F4
:107C90004FEA1E31B80814F5806412DDBD0775F196
:107CA000004250EB0E5051EB045111F5801F5CBFA8
:107CB00041EA0C01F0BD4CF07F6141F0E041002051
:107CC000F0BDBD076D0840EA0E5041F48011D4F1BB
:107CD0000104B4F120060ADAC4F120060200E040F3
:107CE00001FA06F3E1401843B24015430EE0342C8C
:107CF00013DCC6F1200445EA40056D0820FA06F2BF
:107D0000154321FA06F0A1400D43002175F1004210
:107D100050F1000051EB0C01F0BD00205FEA0C01B6
:107D2000F0BDCFB992185B41B3FA83F704BFB2FA42
:107D300082F6BF190B3FB7F120062FBF02FA06F3F8
:107D4000BB40C7F1200622FA06F638BF3343BA40DB
:107D50001CB1E419641E33E77F4231F00041B1FAEF
:107D600081F404BFB0FA80F6A4190B3CB4F12006EC
:107D70002FBF00FA06F1A140C4F1200620FA06F652
:107D800038BF3143A0403C1B1AE7AC421ABF05EA9A
:107D90001357AF4212E050EA41061CBF52EA4306B5
:107DA000BFE750EA4107304661461CBF41EA055132
:107DB000F0BD52EA430C08BFC143F0BD00204FF4B0
:107DC000001616EB410F98BF16EB430F08BF16EBDA
:107DD000410F24BFC14305E016EB430F0CBF6146C2
:107DE0004CEA0551F0BDFEE7400D491840EA8120FC
:107DF0000CD2490DA1F58061491C40F0004005DB23
:107E0000D1F11F0154BFC840C01770470020704710
:107E1000014648B1B0FA80F18840C91CC1F58461BF
:107E2000090501EBD02140057047012000F0B6B8EC
:107E30007047FEE7841A71EB030604D26E40001B04
:107E4000B141121973414FF4001C1CEB410F34BFB8
:107E50007CEB430682E00C0DA4EB1356362E7BDC44
:107E6000012E45EAC32341DC43EA525312BFD2023A
:107E700092025B08240545EAC12141EA5051D2EB48
:107E8000C020994125D407D1B0FA80F610FA06F146
:107E900062D00020203608E0B1FA81F6B140C6F188
:107EA000200220FA02F21143B0404FEAF474B4EB1E
:107EB000465434F001064FEA74040AD8D6F5001689
:107EC000760D04F00044F04061FA06F25040F140B3
:107ED0004840C00A40EA415021F0004128BF5FEA13
:107EE000500550F1000044EBD12135E0DB0A45EAB2
:107EF000C121C90AB6F120050EDD42EA0242120C88
:107F0000C5F1200603FA06F6EB4042EA06056D428B
:107F1000984161F100010DE062FA06F5F24055402A
:107F200063FA06FC82EA0C02F3405A406D4290412B
:107F300061EB030111F4801F05D1641E620502D0BC
:107F40006D004041494121F48011430875F100431F
:107F500050F1000041EB045170BC70471CEB410F25
:107F600015D223F0004352EA43060BD04FEA4C0CE3
:107F7000BCEB410F04D80C0D661E342EB7DDEBE7C9
:107F8000801A994150EA410608BF0021E4E708BF82
:107F90001CEB430F28BF6FF00001DDE72021090330
:107FA00026311820ABBEF9E700F1804000F5C04053
:107FB0000068012818BF0020704700F1804000F5DC
:107FC000C04081B00021016000680090009901B0BC
:107FD000704770B51F28049D059C41EA420192BF7D
:107FE0004FF0A04600F01F00DFF84C6641EA830125
:107FF00041EA052106EB800041EA0441C0F8001780
:1080000070BDE0B500210191009100230122FFF72E
:10801000E0FF07BD1F2892BFDFF8202600F01F00F9
:10802000DFF81C2652F8203023F4403342F8203089
:1080300052F8203043EA014342F8203070471F28AD
:1080400092BFDFF8001600F01F00DFF8FC1507E014
:108050001F2892BFDFF8F41500F01F00DFF8F015BD
:10806000012202FA00F00860704701461F2992BF02
:10807000DFF8E00501F01F01DFF8DC050068C8400B
:1080800000F0010070477CB50FF2F0540918D4E9F4
:108090000056CDE9005606E05DF82040D4F81045C2
:1080A00042F8044B401C8842F6D373BD02460120BF
:1080B00002F00703D2089840895C0840704710B569
:1080C000C20801248B5C00F0070004FA00F018439A
:1080D000885410BDDFF88415084490F93000082852
:1080E0008041C00F7047DFF87415084490F93000E4
:1080F000082801DB0120704700207047DFF85C157D
:10810000084490F93000C043C00F7047DFF85015A5
:10811000D5E7DFF8482502EBD001012391F8642070
:1081200000F0070003FA00F022EA000081F8640082
:10813000704780B5DFF82815FFF7B8FFB5E1F0B557
:10814000034614004FF0FF3007BF08240C2500241D
:108150000825DFF8086500E0641CAC420ED256F832
:10816000247017F1010FF7D1F01880F8304046F86D
:10817000241012B9301980F85830204640B2F0BDB2
:10818000DFF8D8144FF0FF3241F820200828A4BFB0
:10819000081880F85820704738B5DFF8C04494F8C4
:1081A0006A0008B1082032BDFF22302104F13000FE
:1081B00000F068FA0025E8B2FFF7E2FF6D1CE8B2B4
:1081C0000C28F8DB062104F1640000F079FADFF8EE
:1081D0009414DFF89424C0200870402111604FF4FB
:1081E000BE70FFF7EAFEDFF884144FF0004008602D
:1081F000012184F86A10002032BDDFF8600490F895
:108200006A0000B101207047FEB505460E46DFF852
:108210004C044119002491F9300010F1010F18BFEE
:10822000082442D1B07850B96FF0010281F83020B3
:108230007078012828462BD1FFF701FF2AE00122A0
:1082400000212846FFF77BFF10F1010F1ED0727846
:108250003378DFF81C74DFF81C1457F820C001EAEB
:108260000C0147F820104FEA052C1B040CF47C5C31
:1082700003F44033120557F8201043EA0C0302F4CC
:1082800080121A430A4347F82020D1E704240CE067
:10829000FFF7DEFE0194009400230122012128460D
:1082A000FFF797FE2846FFF731FF2046FEBD38B5A1
:1082B000044600F0F3F850B195F83000FFF760FF86
:1082C000DFF8AC2395F93000002142F820104FF080
:1082D000FF3185F830102046FFF72BFF30B12046E4
:1082E000FFF78FFE2046BDE8324012E731BDDFF8D0
:1082F0006C130844DFF8781390F9300051F820200F
:1083000042F00302FFE741F820207047DFF84C13EA
:10831000084490F930008000303006E0DFF83C136C
:10832000084490F9300080006030C0B200F1804015
:1083300000F5C04070470A00DFF820130844DFF85A
:10834000301390F9300051F8203018BF012223F487
:10835000801343EA025341F820307047FEB50546CA
:108360000F461646FFF7CAFE002408B1082453E062
:10837000BA78520802F0010231462846FFF7DFFEC4
:10838000064616F1010F46D0B87841071ED4C00743
:1083900011D528461F2892BF4FF0A04100F01F00C2
:1083A000DFF8941201EB8000D0F8001721F00201F1
:1083B000C0F8001707E000210194009100227B78AB
:1083C0002846FFF706FE2846FFF7A0FEB87881078B
:1083D00016D53978DFF89822DFF89C0252F826305B
:1083E000034042F826302D02090452F8260005F415
:1083F0007C5501F440310D43054342F826500BE013
:1084000096483A578119304491F8581041EA821140
:1084100080F8581000E004242046FEBDF8B50E4652
:1084200005468E4CFFF75FFE6719B0B197F9300033
:10843000204490F958000006800F032804D12846F4
:10844000FFF713FE10B103E0012801D1022100E083
:1084500003212846BDE8F440DCE52846FFF73AFE54
:10846000D8B197F93050824850F8251041F00101F9
:1084700040F82510A80000F5807000B2FFF79DFDC0
:10848000002E1EBF97F9301054F82100002804D0A8
:10849000012101FA05F575490D60F1BD6F48051917
:1084A000204617E680B5FFF7E0FD00B10120C0B21D
:1084B00002BD2DE9F84F88B00025CDE900554FF4F5
:1084C000807601274FF00808684C30B2FFF76CFD4A
:1084D00000281CBF2068384203D030B2FFF76DFD82
:1084E0003D437F00361DB8F10108EED14FF4BE7058
:1084F000FFF75AFD50B14FF4BE70FFF75EFD6A46BC
:1085000002210020FFF7BFFD45F000452806534F2C
:1085100017D001260024DFF858812E420DD058F8DC
:10852000240058F8241057F82420130005D0090C13
:1085300001F00301C0F3052090477600641C082C6D
:10854000EBD3002D73D504A80021C0E900114FF032
:10855000FF30029005E001900699049A0598009179
:1085600002924FF0000A0390D14607EB090090F900
:108570006000C6B210F1010F26F0C00442D002A97B
:108580002046FFF793FD00283CD03819B60990F932
:10859000300057F82050280002D1032E32D101E0DC
:1085A000032E03D104A92046FFF789FD20461F288A
:1085B00092BF4FF0A04100F01F001F4901EB800067
:1085C0006946D0F80007000C00F0030B2046FFF7C7
:1085D0006DFD18B1BBF1020F14D102E0BBF1030F26
:1085E00010D1032E09D1BBF1020F0CBF03210221D0
:1085F0002046FFF70FFD0AF1010A280002D031469C
:108600002046A84709F10109B9F1040FADD35FFA7B
:108610008AF060B106AA02210020FFF734FD069916
:10862000009A0798914204BF0199884293D109B0FA
:10863000BDE8F08F0000000000030050000700506C
:10864000000A005008050050080800500C050050B2
:108650000C0800501005005010080050083C002085
:108660006C3C002006E400E000E100E00463004010
:1086700010650040FFC0ECFFFFC0FCFF0000005091
:108680000003005062F30F2262F31F4200B500BFE7
:10869000130096469446103928BFA0E80C50FAD82B
:1086A0005FEA417C28BF0CC048BF40F8042BC907D3
:1086B00028BF20F8022B48BF00F8012B00BDFEE7C1
:1086C0000022FFF7E3BFFEE780B5DFF87405FF2166
:1086D000816000210160416000F21440416001604E
:1086E0000173DFF8600500F0CDFA20B90FF2885071
:1086F00000F072FB002002BD30B591B1DFF84825D3
:10870000DFF848150568DFF84835511A002200E007
:10871000521CB2EBD10F06D233F82240AC42F7D153
:108720000260002030BD052030BD01B56846FFF76E
:10873000E3FF28B9DFF81C15009851F8300002BD9E
:10874000002002BD00000000491EDFF808250329B3
:1087500081B002EBC0000BD8DFE801F0020406088C
:10876000022006E0042004E0007902E0407900E005
:10877000002001B0704781B0024600201368C3F3A7
:1087800080029AB103F00300012802D0022807D02A
:108790000BE00868C3F38312921C1018086004E011
:1087A00008689B0D9B1C1B180B60012001B07047D3
:1087B000F8B5DFF88C4484B004F5836000F05EFB0C
:1087C00004F21445284600F059FB6068A768009041
:1087D0000026009904F10C00394000F0E9F9002866
:1087E000F7D1009A04F10C013A4051F8221001AA85
:1087F00000F0E2F9F5D90199BDF80A0001F0030192
:1088000001290AD002290FD1019906460098890D45
:10881000C91C00EB9100009006E006460198009903
:10882000C0F3831041180091284600F029FB08B1DD
:1088300000986060304605B0F0BD80B50021DFF8DB
:10884000180400F0D3FA80F3100002BD2DE9F84FB0
:108850000446884693461F460A9DDFF8E493FFF7D7
:10886000ECFF09F10C0A7E1C00042E4040EA144083
:10887000E4004AF8260004F0380444EA8B14C4F3F8
:10888000090409F10C0044EA88242F4044F0010453
:1088900040F82740BDE8F18F2DE9FC4188460021D2
:1088A0008DF800101646DFF898730446684600F00D
:1088B000EFFA3968C8F80010A51C00F02BF807F291
:1088C0001C480BE00121404600F0C0FAFFF770FFA2
:1088D0000146404600F0BAFA00F01CF8A942F1D374
:1088E0002EB1A40104F4707444F0050402E0A40560
:1088F00044F006043968B868014007EB8101CC6098
:108900003A689DF80000AD183D6000F0DEFA0120E5
:10891000BDE8F681B8683968401C411A786841188A
:1089200070472DE9FE43DFF8186304460D46904674
:108930009946B768012201A94846FFF7ADFFA8B1E3
:108940000198801C002108E007EA000206EB820281
:1089500058F82130D360401C491C4945F4D3009796
:108960004A46019B29462046FFF770FF96F82004EF
:1089700018B100F017F80028FBD1BDE8F7830023F9
:108980000022CEE780B50092012300F009F801BD76
:10899000E0B5009201936A460223FFF7C2FF07BDCC
:1089A0006A46BEE72DE9F847A54E706831688842EF
:1089B00085B01DD006F582670020B860BFF34F8FE9
:1089C0007068B468009006F10C00009901E006F1AF
:1089D0000C00214000F0ECF8002800F0CA80B868D4
:1089E000002840F0C680306800998142EFD3706063
:1089F0000020BBE0029965F39F51029105F1080147
:108A000000F042F95FEA000A4ED000F084F900F06D
:108A1000C9F800982040641C241AA40006F10C0137
:108A2000AC4201EB800119D234B9284606F10C01A1
:108A30004FF00008002503E0204606F10C082D1B2E
:108A4000C4B208232246504600F0BAF9B8F1000F2C
:108A500009D004F10803EAB2414601E008232A469E
:108A6000504600F0ADF9009809F1030100EB9100C8
:108A7000009039E0029901F0030101295AD10299CD
:108A8000029AC1F383110529C8BF062122F470722E
:108A900042EA811202920299C1F38311891C890072
:108AA00000F0F2F85FEA000A44D000F034F900F078
:108AB00079F84FF008094FF0000810E00098411CC9
:108AC000009106F10C05204005EB80014B46042285
:108AD000504600F075F909F1040908F101080298FF
:108AE000C0F383108045E9D33C68B86870B1504644
:108AF00000F015F932E0E0684179012904D12268DB
:108B00001368514620469847E0680468002CF2D16B
:108B1000504600F004F900208DF8040001A800F090
:108B2000B7F9B86808B9009971609DF8040000F0C1
:108B3000CCF913E03C6805E021688A68204690473C
:108B4000E0680468002CF7D14448404A45A1801AE7
:108B5000C008000440F00200FFF711FF70683168A0
:108B600088420CBF0120002080F0010006B0BDE863
:108B7000F0870020009A06F10C01224051F82210E3
:108B800002AA00F019F8F5D902992E4801F0030164
:108B900002297FF46FAF029DAD0DA946502DA8BFED
:108BA000502527E70023082202A9504600F008B903
:108BB00000EB81006946DEE542F82010401C009978
:108BC000491C01280091704730B5024600201C4B1B
:108BD000D3F8101400E0096889B1C9680C7984429F
:108BE000F9D1401C0A28F3DB4FF0FF3030BDC968D3
:108BF0000D682560D3F81034D9680A6030BD10F1D3
:108C0000010FFBD0D1680871D3F81014D468002983
:108C1000EDD1C3F81024216030BD10B510480468B0
:108C20000121017408E0E1680120487120462268B2
:108C300051688847E0680468002CF4D110BD00003A
:108C400024310020E0F10200CCEE020054EE0200DC
:108C50000000000054EE0200403500206CEE0200DF
:108C6000343500204261636B656E647320666C75F9
:108C70007368656400000000943A00207F000000E3
:108C8000A43E002000F03CB92DE9F04105460F4616
:108C90002E8A00F04CF9361F040021D000202071EC
:108CA000F7190120FF1C6071A046B7FBF6F7E680BC
:108CB000FFB27F1EC8F80050002607E06179491C0A
:108CC0006171C8F8000005608046761CBE4209D27A
:108CD000284600F02CF90028F0D1204600F005F8D5
:108CE000002000E02046BDE8F081F8B501460D46C1
:108CF0004C79601E002200E0521C2D688242FBD39A
:108D0000002605E00F68284600F033F93946761C46
:108D1000A642F7D3F1BD0121001D00F097B81CB5A4
:108D200004460121201D00F09DF800909DF80000F0
:108D300018B92046BDE81640D7E713BD2DE9F04726
:108D40001446B0F806804279256846465643361FD9
:108D50005F1903F1040CBE42BCFBF8F234BFF31AF6
:108D60002B4608FB12CC2360002A01E00068521E4B
:108D7000FCD1A8EB0C02089F9A4693424FF00009E1
:108D800088BF92460E4605461C46BCB105EB0C005A
:108D9000001D06EB0903390052460EBF1946014675
:108DA0001846FEF717FB2D68A4EB0A04D14444458E
:108DB0004FF0000CA246E8D9C246E6E7BDE8F087CE
:108DC000E0B50192002202E0E0B50192012200929A
:108DD00001AAFFF7B3FF07BD806800218160016130
:108DE0004161C160416001607047FEE710B5024615
:108DF00052E8000F0C4642E8004393F0000FF7D111
:108E000010BD000010B5024652E8004F44EA0100D0
:108E100042E8000393F0000FF6D110BD10B50246F2
:108E200052E8000F00EA010442E8004393F0000F0B
:108E3000F6D110BD10B5024652E8004F04EA010019
:108E400042E8000393F0000FF6D110BD10B50246C2
:108E500052E8004F04EB010042E8000393F0000FDA
:108E6000F6D110BD10B5024652E8004FA4EB010048
:108E700042E8000393F0000FF6D110BD0121C1E7D5
:108E80000021CBE7EFF3108072B6704762B67047EF
:108E900038B50446FFF7F6FF154A916871B901230A
:108EA00093601449144B1D680D4015601960596892
:108EB00051604FF0FF315960002100E00121217025
:108EC00010B9BDE83140E1E731BD10B5084CA168EB
:108ED00069B160B9FFF7D6FF084922680A60626885
:108EE0004A600021A16010B9BDE81040CEE710BD76
:108EF000383F0020FC06FFBD80E100E000E100E01B
:108F000010B508B90E2010BD0368426881681A6068
:108F1000891A03E013685C1C146019700B46591E13
:108F2000DBB20268002BF5D10020107110BD38B5FE
:108F3000044600258DF800506846FFF7A9FF216818
:108F40006268086882420ED2421E0A601578208A42
:108F5000E3684543A068821A20681D4403799A4259
:108F600038BF1A460A719DF80000FFF7AEFF284689
:108F700032BD38B50C46002105468DF80010684614
:108F8000FFF786FF286801684A1C0260E868241A17
:108F9000288AB4FBF0F008709DF80000FFF795FFF9
:108FA00031BDFEE78900006801F5A07109B20844EF
:108FB00070470268D2F810250801090F00F0B8BA0E
:108FC0001F2892BFDFF8401500F01F00DFF83C15A6
:108FD00007E01F2892BFDFF8381500F01F00DFF808
:108FE0003415012202FA00F00860704738B5416874
:108FF000DFF824350A79181D845C0120FF2C0ED07F
:10900000FE2C0DD0096801EB840103EB8204D1F83A
:109010004015A569A94203D1191DFF2088540020DD
:1090200032BD4068022100F06CBB2DE9FC410D46C9
:10903000DFF8E4040126002700EB850400EB450877
:1090400008F10C00C05D88B108F10C0108F10C02B8
:10905000C95D481ED05508F10C00C05D28B9E16A11
:109060000A68D3692846984700E000267F1C022F33
:10907000E6DB1EB1E06ABDE8F641D2E7BDE8F38168
:109080002DE9F04780460027D8F800A09AF8200084
:1090900000F0ADFB0C257D4300260AEB050909EB2A
:1090A0000604207AFF2803D000F0A1FBFF202072E5
:1090B000761C022EF3DB5AF8050010F1010F05D0E3
:1090C000FFF7F5F84FF0FF304AF805007F1C00204D
:1090D000022F89F80B00DDDBD8F80400BDE8F0476B
:1090E00000F08FBA2DE9FA47074691463C68DFF851
:1090F000286494F8200000F0CDFB9DF800100C20AF
:1091000010FB01F85FEA090004EB08054FF0FF0AC5
:1091100004D1687A00F0BEFB287A07E0A069814597
:1091200009D38146287A00F0B5FB687A00F09BFBF2
:1091300000F049F840E0221D52F80820824218BF92
:10914000002A2AD0914528D278680023032100F014
:1091500096FA2868A97A11B1FFF7E0F801E0FFF765
:10916000D5F8824678680321FFF71CFF014694F882
:109170002000524600F059FB94F8200000F073FBE9
:1091800079680A799DF80010301D815406F11800A5
:1091900079680A7940F8229001E000F014F89DF80F
:1091A0000010786800234A4600F069FA287A00F037
:1091B0005AFB687A00F057FB201D1FFA89F140F82E
:1091C0000810BDE8F38779680A79301D00F802A01D
:1091D0007047F8B504460E46206800F11C0115469C
:1091E0004A79022A01D00820F2BD0C23001D13FB8E
:1091F00006F3C058854205D1096809B36068007953
:1092000088471DE02046FFF7F1FE08B11120F2BDAE
:109210006168C14F0A79381DFE2383542A463146BE
:109220002046FFF75FFF2168C86948B16168087987
:1092300007EB4002901902210173606800F04FFAB9
:109240000020F2BD10B503681C8B62436424B2FB9E
:10925000F4F2BDE8104092B2BBE700002DE9FC42F9
:10926000054614462A6892F821001E4608B10820D7
:1092700061E089460C2010FB09F017180021796085
:10928000BE7200BFA7A10A68009269462B68184405
:10929000807A401E8041C00F8DF801002046FEF705
:1092A000B3FF10BB30003C60204602D0FFF791FEB8
:1092B00001E0FFF785FE0024E0B23844083000F0FA
:1092C0006FFA90B9641CE0B20128F5DD387A00F03D
:1092D000E1FA787A00F0DEFA386846B1FFF71EF856
:1092E00006463868FFF712F807E0042023E0FFF78E
:1092F0000DF806463868FFF711F8044668684946D5
:10930000FFF750FE0146387A324600F08EFA686860
:109310000221FFF747FE0146787A224600F085FADF
:109320000120F87269687C480A7900EB42004844E1
:10933000002101730020BDE8F68200002DE9FE4FF8
:1093400007465FEA0108934608BF0B2005D0D7F80F
:10935000009099F8210008B108207CE000F0CCFAD8
:10936000002818BF85282AD1FEF747FF20B9FEF74D
:1093700013FF08B103206EE06848674D017801F0E3
:10938000F00130290CBF002001202870FF2689F849
:10939000206000204FF0FF3100230C2242434A445A
:1093A000401C0228D372167256721160F5DB09F167
:1093B000200000F0F5F920B13846FFF761FE0420E7
:1093C00049E00024E0B258F8202012F1010F0DD03E
:1093D0004044E1B2037A3846FFF740FF5FEA000AF3
:1093E00051D10022E1B23846FFF7F3FE641CE0B22F
:1093F0000228E7DBD8F810000022B0F5805F2CD3FC
:10940000082A9CBF4008521CF7D926E0D8F8101053
:109410007868FFF7CEFD0446C9F81840786800F078
:109420002AF901200090042378682246022100F0E6
:1094300041F97868022100F064F9C9F81CB02B1DCD
:109440007868017905EB8102D76200791E5401200A
:1094500089F821000020BDE8FE8F287808B102B904
:10946000012200BF30A3D3E90001CDE901018DF84D
:10947000042078682A4A0179029101A900F070F865
:109480005FEA000AC2D03846FFF7FAFD5046E2E72D
:109490002DE9F047064600243768DFF87CA04FF03E
:1094A0000C0871680A790AF10C0000EB42000021F7
:1094B00008FB04F9015507EB0905E87A80B131682A
:1094C00001EB0900807A411E89412868C90FFEF727
:1094D00032FF2868FEF70BFF391D002041F8090014
:1094E000641C012CDDD971680A790AF10400FF239C
:1094F0008354706800F0BFF8706800F0A6F802208E
:1095000087F82100BDE8F0870805005008080050E2
:109510000C0500500C080050583D0020E80F00F0EA
:109520002B90020003000100000000070000000073
:10953000D2B2203A22BF21FA02F000217047203235
:10954000D141D04048409140D14048407047FEE76B
:1095500081B00022425040580090009901B07047FD
:10956000F8B506460C46337980490C204343CD18A4
:10957000287A08B10820F2BD2A6000276068686078
:1095800002E000F093F87F1C72793068F9B29142E2
:10959000F7D3E178000B490142B2002A06D5744A9C
:1095A00000F00F00104400F8041C01E0714B9954C6
:1095B00001233168704E00F041F846F8223060789F
:1095C000D1F8042500F017F8C1F80405A078D1F807
:1095D000082500F010F8C1F808052078D1F810250A
:1095E000120900F00F0040EA0210C1F81005012036
:1095F00028720020F2BD920800F0030040EA8200C9
:10960000704738B50446012321685C4D00F016F818
:1096100045F822300022D1F80002C1F8002220468D
:109620004FF0FF32C1F8082300F01AF822794F49B1
:109630000C20424388180021017231BD0A0B02F050
:109640001F0052B283405209704702680121116025
:10965000027946490C204243881802210172704762
:10966000026801211161027940490C2042438818A7
:1096700001210172704700680121C1607047F8B58F
:1096800006460C464FF4803730681546A7402BB18C
:1096900000F00CF83068C0F8047301E0C0F80873FB
:1096A000316801EB8400C0F84055F1BD890001F537
:1096B000A0714DE7F8B51C460568069BD5F8006219
:1096C00040F201178F40BE43C5F80062D5F8006232
:1096D0003443C5F8004201B0BDE8F040CFE738B5EB
:1096E00004460D46AA0002F5A072206811B2FFF7E9
:1096F0002FFF4FF4803101FA05F52168C1F80453BA
:1097000031BD00684FF4803202FA01F1C0F808134D
:1097100070472DE9F84306460F46904600244FF463
:10972000803915E0A50005F5A07528B2305800284D
:109730001EBFD6F8041309FA04F0014207D029B27B
:109740003046FFF705FF79683A6828B29047641CF5
:109750004445E7DBBDE8F183042204490848D8E723
:10976000042208490848D4E700000000BC3E00205D
:1097700018ED00E000E400E000E100E080E100E03E
:1097800000800040C83E00200090004054494A68D4
:10979000012303FA00F0104018BF0120C0B2704747
:1097A0002DE9FC47814604244F4DDFF83481002623
:1097B0004FF0010A00218DF8001000F033F80AFA8A
:1097C00006F73D420BD0F0B2FFF7E0FF38B9D8F80A
:1097D00004003843C8F8040089F80060002400F051
:1097E0007BF81CB1BD4306F10106E3D16FE038B54B
:1097F00005463D480024E840C00758BF07240DD562
:10980000012000FA05F53748056000F009F83448F2
:10981000416821EA0505456000F05EF8204632BD4A
:109820008DF800406846FFF733BBF8B50D001446CD
:1098300018BF002C064601D10E20F2BD2A48002791
:10984000F040C00758BF07270BD53046FFF79EFFF3
:1098500008B9082705E0254840F8365000EBC60057
:1098600044603846F2BD38B500F02BF848BF0725F4
:109870000ED41D48E040C00705D52046FFF786FFFF
:1098800008B9082504E0012000FA04F4184804602F
:10989000284632BD38B500F014F848BF07250ED46D
:1098A0001148E040C00705D52046FFF76FFF08B913
:1098B000082504E0012000FA04F40A480460284660
:1098C00032BD04460B480025E040C00770472046E3
:1098D000BDE8F68740F825609DF80000FFF7F5BA6F
:1098E000643F002008F50140FFFF010010F5014032
:1098F00004F501400000FEFF0349087810B9012279
:109900000A707047852070478C3F002000000000DF
:10991000012200F01F01DFF8183504E0012200F0F9
:109920001F01DFF810358A40400943F820207047B6
:10993000012200F01F01DFF80035F4E749010200C1
:1099400081B007D5DFF8F42400F00F00104400F8D0
:10995000041C02E0DFF8E834195401B0704728B164
:109960000FF21C51800141F001010847704710B50A
:10997000DFF8D014DFF8D0444FF4003008604FF423
:109980008031DFF8C804016401600120206000F02C
:10999000C0F8012161600020DFF8B444A06000F04D
:1099A000B8F80020A07010BD1420B7E72DE9F84FDB
:1099B000DFF89C74DFF89C548046786800904FF084
:1099C000000900E07E60B8F1000F7DD04646D6F871
:1099D0001C8031E0A346E469002C73D08442F9D1A5
:1099E000A34502BFC8697860002808D1DFF8681471
:1099F000012008600021F870B96000F08AF8216841
:109A0000E069CBF81C0010B1026889180160786821
:109A1000824557D04FF0010954E0307C002853D1E3
:109A20008A687260C868B0600869F0604869B061AF
:109A3000F87808B100217160B8687168DFF81C34EB
:109A40000A1A22F07F429A4203D2B068821832602A
:109A500008E0401AB16820F07F40884234BF081AFD
:109A60000020306000207060B06001203074002061
:109A7000F06179680029A5D008683268904203D364
:109A8000801A0860F1619DE70846036893423AD264
:109A90000146C069D21A0028F7D136E0B9F1000FAB
:109AA00002BF78680099884214BF01200020BDE8F9
:109AB000F28F786800281FBF00210174C0697860A8
:109AC000F7D101E000203074287869788842E5D029
:109AD000024613461820291D43431944521CAB78F3
:109AE000D0B2984208BF00222A700A784868012A3A
:109AF000064692D00CD3032ADBD009D279688B4674
:109B00008A465C4668E79B1A03603260F061CE616A
:109B100059E72F2023E72DE9F843DFF83443606845
:109B2000002839D00568DFF838633768D4F8088032
:109B3000A7EB080020F07F4000F10309A07890B95E
:109B4000DFF820034FF48031016401601120FFF73A
:109B5000EFFE1120FFF7DCFEC34901200860FFF78C
:109B6000D8FF0120A0704D4538BF4D46454425F033
:109B70007F45F563ED1B3068C71B27F07F4725F055
:109B80007F45FF1CBD420AD23068F063FFF7C1FF7A
:109B9000BDE8F2431120C1E6BDE8F143E7E6BDE8C8
:109BA000F1832DE9F041AA4C94F800C06378A168D4
:109BB0006068002200269C450F46804612D00CF1BA
:109BC000010C5FFA8CF3022B08BF944604F10C03DE
:109BD0005FFA8CFE53F82E30591821F07F41A160B6
:109BE000012101E00023002184F800C0F9B114E054
:109BF0005B1A8E190021CCF800108646DCF81C0098
:109C0000DCF80C1049B1F519CCF81C2025F07F4583
:109C1000CCF80450CCF80810724638B18446DCF811
:109C200000108B42E4D2CB1ACCF8003001266060E1
:109C30001046FFF7BBFE00280EBF002E4046FFF780
:109C40006AFF0020E070BDE8F08110B581494A78D4
:109C50008C78521CD3B2A34208BF00220C78D3B236
:109C6000A34201D1002010BD027018204A7842435F
:109C70008818001D10BD2DE9FC41804600240D46CA
:109C800016461F4600F03CF80DF10100FFF7DDFF1E
:109C900008B904240BE001210170C0F80480704968
:109CA00009688160C5600661476100F024F89DF88D
:109CB0000000FFF70AF90CB9FFF776FE2046BDE871
:109CC000F6817CB5054600240E4600F019F80DF12A
:109CD0000100FFF7BAFF08B9042403E006704560ED
:109CE00000F009F89DF80000FFF7EFF80CB9FFF756
:109CF0005BFE204676BD9DF80100564948707047CE
:109D00008DF800406846FFF7C3B8F8B55748504D86
:109D10000021016441648164C164016041606C6838
:109D200044B34F480068AF68C71B002627F07F4741
:109D3000206887420CD33F1A86192146E469087CC3
:109D400020B1002288690A7449698847002CEFD144
:109D500068782978814201BF401C6870C0B202282F
:109D600004BF00206870687805EB8001CE60BDE814
:109D7000F14019E6F1BD14E738B5FFF7F8FD3548B5
:109D8000334C374D002101800B2181700020606031
:109D9000207060701420FFF7CBFD06211420FFF720
:109DA000CDFD1420FFF7B4FD0020686006211120CE
:109DB000FFF7C4FD2868A060002032BD10B5254C17
:109DC000A37843B1130018BF002801D1072010BDAC
:109DD0000368187C08B1082010BD00241C74597455
:109DE0005A6110BD10B51B4C1346A278002A18BF4B
:109DF000002805D0052901D2072010BD42690AB903
:109E0000082010BD427CBDE81040012A0CBF0A4664
:109E1000002230E70F4A9178002918BF002801D0AE
:109E2000416909B90820704700220274022148E7FD
:109E300000E100E000E200E080E200E018ED00E078
:109E400000E400E080E100E004100140081301405C
:109E5000D43E0020D037002008100140FFFF7F00D3
:109E6000041501400413014000100140001101409D
:109E700000000000000000000000000000000000E2
:109E80000338FDD870470000DFF870140120087017
:109E9000704700F0AFBA01460878002800D070473C
:109EA00038B58A8A00240A2306E0086910F8015BA5
:109EB000086103FB0454303C1046421E0028F4D1D4
:109EC0000FF2F845A2B200212846FFF7BBF9A2B273
:109ED0002846BDE838400121FFF7B4B9007840B901
:109EE000DFF81C2410883B2176DF002818BF00F023
:109EF00081BA704700F07EBA80B5002000F0CCFB3C
:109F000008B100F077FA00F090FC08B100F072FAA6
:109F100033DF00B10BE001BD80B530B1032805D1BE
:109F2000022000F0B9FB08B101E0A6E001BDBDE8E8
:109F3000024000F05FBA38B50446DFF8C803DFF826
:109F4000C823DFF8BC532188821AD208120428885B
:109F5000102942F003020CD011291CD013292CD057
:109F6000212921D03B2932D052292BD056292ED05D
:109F700031BD0FF2D0311046FEF701FD072000F091
:109F80008BFB08B100F036FAA188298005F120008A
:109F900000F0C8FC1EE00FF2B8311046FEF7EFFCEF
:109FA0004FF6FF70288031BD0FF218400188ADF8E0
:109FB00000106946A0888FDF0CE000230022852175
:109FC0007FDF07E0002300220021B1DF02E0A0884C
:109FD000132176DF08B100F00DFA31BDDFF8200360
:109FE0004B8802889A4200D0704710B50A8840F624
:109FF00077239A4211D18B88C34C0FF26431DB1E58
:10A0000043809BB2BF48001BC008BDE8104000045D
:10A010001A4640F00300FEF7BBBC10BD10B5BB4CA8
:10A02000BB49204600F03BFD08B100F0E3F9F72101
:10A03000204600F043FD18B1BDE8104000F0DAB949
:10A0400010BD80B5AE490A88042804D0072806D080
:10A050000A2811D111E01321104676DF07E04FF6F0
:10A06000FF70824208D101F12C0001F08FF808281E
:10A0700018BF002800D05AE701BDBDE801403BE70A
:10A0800038B5017819B102292DD02CD331BDA14C9E
:10A090009B4D2178201D084401F04BF92078401C8D
:10A0A000C1B262182070D2780A2A18BF0D2A03D0D4
:10A0B0006A88C0B2904219D3022911DB20782B881C
:10A0C000ADF800006A46211D281D01F092FA08280B
:10A0D00006D01328F2D005281CBF002800F08AF90A
:10A0E0000020207031BD406800F084F931BD0000CF
:10A0F00018B585B04FEA0D00B9A11422FDF77AF921
:10A1000001248DF809406946ACA4834A2046FFF734
:10A1100015F92046FFF7BCF906B010BD18B5ABB075
:10A12000FFF7E6FF0DF11000A7A1754C1822FDF70F
:10A1300061F904F52270009004F562714FF48070AB
:10A140000190029103900723744A694604A801F024
:10A15000A5F808B100F04EF94FF400410020FEF7D9
:10A16000B3FA08B100F046F901F080FAFFF704FEF7
:10A1700008B100F03FF96A49032000F099FA08B1EC
:10A1800000F038F96946002000F09FFB08B100F0AC
:10A1900031F901F07BFA08B100F02CF901F012FB63
:10A1A00008B100F027F9002000906946012001F075
:10A1B00073FB08B100F01EF9684601F0F9FB08B125
:10A1C00000F018F911208DF800000B225AA1684602
:10A1D0007CDF08B100F00EF901A800210022C0E9DF
:10A1E000001210203C21ADF80610ADF804004FF429
:10A1F000C871ADF80820ADF80A1001A87ADF08B1DF
:10A2000000F0F8F8FFF70AFF4648019001A904F1B1
:10A21000200000F075FB08B100F0ECF84248009017
:10A220006946201D01F088F908B100F0E3F8AC217F
:10A230006846FEF745FA02208DF80000002105204F
:10A240008DF803008DF8021004F52170012114909F
:10A25000ADF84C108DF87C101FA84021C16044F26D
:10A26000506101613149816204F12C00694600F0BE
:10A27000E3FD08B100F0BEF8012104F12C0000F06C
:10A28000D8FD1C216846FEF71BFA002000904FF411
:10A2900020314FF470200290019100200321ADF88D
:10A2A0000E008DF810008DF80C1021482149059002
:10A2B0000691684601F092FD08B100F09BF800BFDE
:10A2C0002EA001F04FFE0F48DFF83C2030A1801A8D
:10A2D000C008000440F00300FEF751FB032104F125
:10A2E0002C0000F023FE08B100F084F8FEF75AFBC2
:10A2F0000028FBD101F0D7F9F8E700008B3F0020E0
:10A30000E02A00206CEE020054EE0200E83E00203D
:10A31000DD9F0200DC380020899E020081A002003F
:10A3200043A00200939E0200979E0200199F020024
:10A33000DD9E0200F59E02004E6F726469635F55F8
:10A3400041525400436F6E6E656374656400000093
:10A35000446973636F6E6E6563746564000000002A
:10A3600044617461206C656E20697320736574208C
:10A37000746F203078255828256429000D0A55412E
:10A38000525420737461727465642E0D0A000000CB
:10A390004465627567206C6F6767696E6720666FDA
:10A3A000722055415254206F7665722052545420C9
:10A3B000737461727465642E00000000403E0020DA
:10A3C00074F2020000000000080000000600000017
:10A3D00005000000070000000000000000E0D701B9
:10A3E0000D0000000E000000000000000200000050
:10A3F000881300001FB5694600220023002481E86D
:10A400001C0002906A46002144F2010001F0BEFDEA
:10A410001FBDFEE7042838BF01F05ABE0020704778
:10A420002DE9F8438046894601F070FE0024042897
:10A430002FD2DFF86C6300EB400175183718B9F1C3
:10A44000000F14D0B9F1020F1AD01AD22C78687804
:10A4500050B106F10F024FF4004106F15C00FFF726
:10A46000C1FC08B986F80F80A878387409E006F1B5
:10A470005C00FFF7CFFCAC78387CA04209D100E04B
:10A480006C7820001CBFB169002902D0BDE8F443FC
:10A490000847BDE8F18300780221C1E710B5DFF875
:10A4A0000013887B48B10024204601F0E5FD641CC0
:10A4B000042C06D2022CFAD0F6E7BDE8104001F0D9
:10A4C000DFBD10BD2DE9FC41B54E0446707B002771
:10A4D00010B17773FFF7E2FF8DF800402046172890
:10A4E0000190B04DDFF8C082B04C00F2BE80DFE8D2
:10A4F00000F00C1515282F3A4F5559615961B76E68
:10A500006E6E6E6E9DA1A7AEB7B7FFF7C7FF06F1DF
:10A510001C00FFF77FFC07460020A5E09DF80070B7
:10A5200000F0A9F830B100F0A9F8022F14BF40469E
:10A530009F4821E001F09CFD022F0CBF20462846D9
:10A540001AE000F098F8A0B100F098F8994813E0EC
:10A5500000F091F818B100F091F840460CE001F0DD
:10A5600087FD284608E000F086F810B100F086F874
:10A5700001E000F07DF8204600219DF800203273B4
:10A5800000234FF47A72FCF779FF0146002218E0AD
:10A59000002001F087FD0620307307E000F068F826
:10A5A000072061E00120707301F07CFD002240F67D
:10A5B000CD4106E00120707301F074FD00224FF4DC
:10A5C000804106F11C00FFF70DFC07464DE006F147
:10A5D0003C00FFF71FFC07460198D0F111001FD087
:10A5E000F7B9022817D380B2C8214843C117C9035D
:10A5F00041EA5041C00310F5FA7041F100014FF4F7
:10A600007A720023FCF73AFF0146002206F13C0073
:10A61000FFF7E8FB0746022001F02AFD012003E0D6
:10A62000022001F029FD0020B0731EE0FFF736FF85
:10A63000122019E0FFF732FF00F01AF8132013E0A0
:10A64000FFF72CFF012001F013FD14200CE0FFF7B1
:10A6500025FF00F00DF8012001F00AFD152003E0B0
:10A6600001F017FD9DF8000030733846BDE8F68113
:10A67000002001F0FDBC002001F0F0BC002001F042
:10A68000FBBC4748017DCA0744BF007BFFF71ABFE8
:10A690007047022001F006BD80B5414A137D0021BC
:10A6A000DA0702D5FFF70EFF0146084602BD00009B
:10A6B00070B505463A48002445618161A8071ED55A
:10A6C000002601220121304600F02FF8761C042ECE
:10A6D000044601D2002CF4D034B940F26662042161
:10A6E0003EA001F0EBFD044614B901F01CFE044647
:10A6F0002CB9314A38A00021FFF760FB0446E80777
:10A7000011D5012001F016FD2CB92C4A30A00021F2
:10A71000FFF754FB044634B9DFF8A4202DA0012133
:10A72000FFF74CFB0446204670BD18B503460020D9
:10A73000042B14D2012A04D101290CBF03F10E020B
:10A740000022174C03EB4303234431B1022902D00A
:10A7500005D21A7012BD5A7012BD9A7012BD072030
:10A7600012BD10B5042819D2002914BF03240024F7
:10A7700001F0DCFC1F2892BF124900F01F001249B3
:10A7800051F8202022F4403241F8202051F82020B6
:10A7900042EA044241F82020002010BD062010BDEE
:10A7A000143B0020F401C800F401D007F401640058
:10A7B000F4018403F401900197A4020083A602002F
:10A7C00093A6020000070050000A00500121C8E7CC
:10A7D000303B0020503B0020703B00200B0003006A
:10A7E00021A402000C00030021A4020018000300B1
:10A7F00021A402001900030021A4020080B5012257
:10A8000000F05AF8002818BF07280DD100F058F8BA
:10A81000002818BF072807D10A22002100F04DF8B0
:10A82000002814BF0728002002BD80B50020FFF7D4
:10A83000CDFF002818BF062806D10120FFF7C6FF6C
:10A84000002814BF0628002002BD10B52B4C01467D
:10A8500009886068102902D011291FD010BDC8B91D
:10A8600001220021FFF761FF002818BF07280CD143
:10A8700000F026F8002818BF072806D1042200F0AF
:10A880001BF8002818BF072804D000281EBF216825
:10A89000002988476068401C606010BD401E6060F1
:10A8A00009D1FFF7ABFF00281CBF2168002902D0A7
:10A8B000BDE81040084710BD02210020FFF735BF5A
:10A8C000072202210120FFF730BF70B50B4E0C4666
:10A8D000002530605CB10120FFF79CFD10B1022122
:10A8E000217004E0FFF796FD00B10B202070706826
:10A8F00010B9FFF783FF0546284670BD443F00208E
:10A90000002818BF002901D10E2070470278DE2AE6
:10A9100001D10820704709684160DE2101704FF6BF
:10A92000FF7107E008B90E2070470278DE2A01D0D7
:10A93000082070474180002070470246107A58B1C5
:10A940005088002166DF08B91172704711281CBFBA
:10A950005168084701201072704738B505460C0051
:10A9600018BF002D84B04AD02078DE2847D1A988AE
:10A970006088814204BF2046FFF7DFFF2888012856
:10A9800004D0112834D051280DD038E0287A01287D
:10A9900002BFA9886088814231D1012020722046FF
:10A9A000FFF7CBFF2BE0A8886188884204BFA87915
:10A9B000022824D1A87B04281CBF062805281ED104
:10A9C00068461021FDF77CFE02208DF800004FF450
:10A9D000C071ADF80410A87B052804BF0021ADF8B4
:10A9E0000410A8886946B0DF48B16168884706E06E
:10A9F000A8886188884204BF4FF6FF70608005B068
:10AA000030BDFEE7F721018017214180002101714F
:10AA10004171FB2181711B21C1717047F8B5054659
:10AA20000FF2B03084B0D0E9002300BF95A0CDE98B
:10AA30000223D0E90067ADF80810ADF80A10CDE99F
:10AA400000676A4602A9284690DF040024D001F07E
:10AA500085FC03468248834E8CA1861BF60836048B
:10AA600046F001062A463046FDF792FFBDF8000089
:10AA7000BDF80230002808BF002B05D04FEA0002C5
:10AA800095A13046FDF784FFBDF8042022B100BF38
:10AA9000A1A13046FDF776FF204605B0F0BD80B598
:10AAA00008B90E2002BD0161F72101804180FB2120
:10AAB0000171801DFFF7A6FF002002BD08B90E201E
:10AAC0007047A1F11702E12A01D3072070470180E6
:10AAD0000020704702469088002800D07047F0B5EB
:10AAE0000E468BB05E495F4CB2F80000A0A50C1B6F
:10AAF000E4082404102844F001040BD011282DD0C0
:10AB0000232800F0908024286FD03A282AD0552896
:10AB100048D092E0B71D3079B871D07B012803D0BE
:10AB2000022803D1708800E030883880398878881E
:10AB300088420ED20020A5DF10B90121797108E00A
:10AB4000112802D10120387103E001F007FC00F068
:10AB50008BF8B979F87988426FD26BE0B01DFFF7B6
:10AB600051FF6AE0B71D50893988884228BF0846DE
:10AB7000788078881728B8BF172078803169002935
:10AB80001CBF7879002809D094A100F072F86946BA
:10AB90007888ADF80400304632699047002078711B
:10ABA00038714AE0D088B71D17283988B8BF1720F8
:10ABB000884228BF0846788000203871B5DF38B158
:10ABC00001F0CCFB4FEA000276A12046FDF7DAFE49
:10ABD0007979002931D1306900282ED081A100F087
:10ABE00048F87888ADF8040018E0111D68462C225A
:10ABF000FCF700FCBDF80010BDF8040006EBC1072F
:10AC00007873D6F81000C0B178A0D0E90023CDE960
:10AC10000023ADF80210787B8DF804006946326994
:10AC20003046904709E0B01D12898179D2B2914235
:10AC300088BF11460020FFF7F1FEB07A68B1F188B5
:10AC40000020A5DF18B9B0720120F07205E01128CC
:10AC500003D001F083FB00F007F80BB0F0BD00005B
:10AC60005CEE020054EE0200024629462046FDF743
:10AC700089BE0020D1E90023CDE90023ADF8020010
:10AC800070470000000000000000000073645F6275
:10AC90006C655F6761705F646174615F6C656E674E
:10ACA00074685F7570646174652829202872657105
:10ACB0007565737429206F6E20636F6E6E656374A3
:10ACC000696F6E20307825782072657475726E65B4
:10ACD000642025732E00000054686520726571752C
:10ACE00065737465642054582F5258207061636BEB
:10ACF0006574206C656E67746820697320746F6F6B
:10AD0000206C6F6E672062792025752F2575206F66
:10AD100063746574732E00005468652072657175E4
:10AD2000657374656420636F6D62696E6174696FC9
:10AD30006E206F6620545820616E64205258207037
:10AD400061636B6574206C656E67746873206973EA
:10AD500020746F6F206C6F6E6720627920257520DC
:10AD60006D6963726F7365636F6E64732E000000AC
:10AD700073645F626C655F67617474635F65786359
:10AD800068616E67655F6D74755F72657175657317
:10AD90007428292072657475726E65642025732E7F
:10ADA0000000000073645F626C655F6761747473B8
:10ADB0005F65786368616E67655F6D74755F726506
:10ADC000706C7928292072657475726E656420250F
:10ADD000732E00000000000000000000770A000051
:10ADE00000000000770A0000000000007ADA00008E
:10ADF00000000000417939B100F25221087818B9F9
:10AE0000887810B1012070470020704770B5044663
:10AE100004F50D760D46B1883068012201F0CBFDB6
:10AE200000B1057004F13C02314604F1540072DFB8
:10AE300070BD80F8301070472DE9F04104465FEA9C
:10AE4000010814BF002C0E2061D008F17A000178AF
:10AE5000012902BF807F0128072058D00021A1705E
:10AE6000201D08F178012C22FCF7C4FA04F1240615
:10AE70000020307304F50D7508F1A40004F15007AB
:10AE8000016831610721406870614FF6FF70A88248
:10AE90002D6104F24A2001F09DFD207808B9FF21C0
:10AEA000397104F15500286004F50E7230780128DC
:10AEB0000CBFEE201F20A88004F15501404601F090
:10AEC000A9FC20BB04F24311A96004F5107230788C
:10AED00001280CBFEE201F20A88108F13C0001F0E2
:10AEE00099FCA0B90120787004F13C02A069B084FB
:10AEF0000021012030760020F061387060693062F6
:10AF000004F1540072DF10B9012020700020BDE868
:10AF1000F08181B0006801281CBF0228042801D1FB
:10AF2000012000E0002001B0704700002DE9F84347
:10AF300007460D46387808B90820E6E007F24A28A7
:10AF4000BD700721404601F045FDB87907F511763F
:10AF500007F1240410B1B978012906D0F87968B155
:10AF6000B878012818BF022808D1206928B101212A
:10AF7000717308202169884700E0707300217818F8
:10AF800090F84B02002840F0C280491C0629F6D3F5
:10AF90006D1E032D18D8DFE805F002090F13BA79EA
:10AFA00022B1217811B938B101200EE0F9790029D8
:10AFB0001CBF0028022008D1387A08B1032004E021
:10AFC000787A08B1042000E00020B870206980B1D0
:10AFD000B878032818BF04280BD1797949B1B07B20
:10AFE00038B9002131740120F073072021698847A6
:10AFF00001E00020F073182107F13C00FDF760FB31
:10B000000120207607F1500507F12C00FFF781FFA2
:10B01000002814BFA06801206870207840B107F1B3
:10B020002C00FFF776FF002814BF60680120A8708D
:10B030000020287007F50D79B878042853D8DFE888
:10B0400000F050030F2137000120607300203060B2
:10B050002062C4F81C80022020768020A08442E078
:10B06000022060732078002819BF07212176032071
:10B0700020763869A08400203060C4F81C80F8680D
:10B08000206230E078692062B869A08420780028C6
:10B0900019BF06212176012020763846FFF7AAFE47
:10B0A00020B100F036F8F0B9052016E0032014E0D6
:10B0B000F8692062386AA0842078002819BF062128
:10B0C0002176012020763846FFF794FE20B100F06B
:10B0D00020F840B9062000E004206073C6F8009014
:10B0E00001E000206073B87850B1316807F13C028C
:10B0F00007F1540072DF40B9217B287973DF20B952
:10B10000216909B1607B88470020BDE8F2830120F6
:10B110003EE7022028700421384677E61CB50288F5
:10B120000C46102A04F5127104D0112A08D0262AE0
:10B1300011D013BDC27B012A26D18088088013BD9F
:10B1400000228A7280880988884204BF20790028FA
:10B150001AD101210DE0007A012818BF022813D16D
:10B16000A078401C052190FBF1F101EB8101401A10
:10B17000C1B22046FFF7DAFE00281CBFA16B0029F0
:10B1800002D0BDE81C40084713BD704710B5044607
:10B1900004F150010122087974DF04F25220027098
:10B1A000002282700A7006212046FFF72FFE48B960
:10B1B000A1782046FFF7BAFE00281EBFA16B002928
:10B1C0008847002010BDFEE71CB50478784B1B5D56
:10B1D0002BB102B0BDE81040001D01F0F1BC02B07F
:10B1E000BDE810400C3001F04CBF1CB50478704B2A
:10B1F0001B5D2BB102B0BDE81040001D01F02BBD5E
:10B2000002B0BDE810400C3001F0B3BF1CB50178AE
:10B21000684C00292CD0022922D03DD242681178F6
:10B2200004F1180002F00AF9A16A20B101228DF898
:10B230000020019006E0206A626A101A04D0002003
:10B240008DF8000068468847206AA18B626A101A50
:10B25000814202D300F080F813BD0120207013BD9D
:10B260008DF800100122C068019000F076F810E01F
:10B2700004F12C0104F1300002F0EDF830B90122A4
:10B2800004F12C01201DFFF79FFF13BD03208DF853
:10B2900000006846A16A884713BD0000F8B5454E16
:10B2A00005460C0088B01F46B26208BF07203ED09A
:10B2B0006268216892B206F1180002F0ACF800282A
:10B2C00035D1E268A16892B206F1300002F0A3F82D
:10B2D00068BB684639A12022FCF78CF868690690A3
:10B2E000287C00B101208DF814008DF81C70687C5A
:10B2F00000B10E208DF815002F4AE8680290A8686A
:10B30000039029680191694668680090301D02F039
:10B31000C3F860B93070286810F1010F06D001221F
:10B3200006F12D01301DFFF760FF00E0002009B09D
:10B33000F0BD70B51F4C2678014604F1180002F0EC
:10B340008AF8054636B10021217000F005F808B1F1
:10B35000FFF750F8284670BD012204F12D01201D91
:10B3600043E738B50146134D05F1300002F066F8A9
:10B3700004001BD12A790E49885C20B105F1080030
:10B3800001F05FFC03E005F1100001F0C2FE68B9B6
:10B3900005F12C0105F1300002F05DF830B9012211
:10B3A00005F12C01281DFFF70FFF0446204632BD92
:10B3B000103F0020982A00200DB20200FFFFFFFF7F
:10B3C000FFFFFFFFFFFFFFFFFFFFFFFF0000000089
:10B3D000000000000000D6010601000038B58AB068
:10B3E00004460D46002000906A46A988606902F074
:10B3F00083F802A800210022C0E9001201A802215E
:10B40000ADF808100390ADF80A20218AA88802AA96
:10B41000ADDFC8B9A069B8B1039802F09DF898B142
:10B42000009808B101210170182104A8FDF748F91E
:10B4300002208DF810000594A888ADF81800009837
:10B44000079004A8A16988470BB030BD30B5054608
:10B450000C4687B0A18868696A4602F04DF800F092
:10B4600033F80295A088ADF80C0000980490298963
:10B47000E088884204BF218A022913D1009808B3CA
:10B4800004F1120002F068F820B100990120087060
:10B49000022102E00099087003218DF80410A969C7
:10B4A00081B10DE0A98988420CD1A96951B1002070
:10B4B0008DF8040004F112020592208AADF81800FC
:10B4C00001A8884707B030BD182101A8FDF7F8B8DA
:10B4D00030B504460D4687B0A98860696A4602F017
:10B4E0000BF880B90099087868B1FFF7EDFF0120EB
:10B4F0008DF804000294A888ADF80C000098049020
:10B5000001A8A169884707B030BD0A0018BF00280C
:10B5100010D00188102904D0502905D0572906D011
:10B5200070470146104659E7014610468EE701462E
:10B530001046CDE77047000030B58DB004460D468B
:10B540000DF1240045A11022FBF754FF002C14BF7D
:10B55000002D0E2034D02868A061214609A862DFA2
:10B5600000282DD120788DF802000121ADF80010BF
:10B57000A21C69460120A8DF002821D12021FFF765
:10B58000A4FF022000F027F840F00C0000F01AF8A9
:10B5900004F10C02608801A901F0FBFF80B92021B1
:10B5A000FFF793FF032000F016F840F0100000F0C2
:10B5B00009F88DF81710221D608801A901F0E9FF34
:10B5C0000DB030BD8DF811008DF810108DF81510EC
:10B5D0008DF816107047ADF80400F4202178ADF80E
:10B5E00008008DF8061001219DF81100ADF80A1031
:10B5F0007047F0B5040085B00D4616461F4608BFDB
:10B600000E2028D060696A46394601F075FF10BBEC
:10B610004FF6FF718F421ABF0098002805201AD0FC
:10B62000007808B9082016E03188F529A8BF07205E
:10B6300011DA01A80021002200238C4680E80E10B8
:10B64000A088ADF80400049501208DF8060003964B
:10B6500001A93846AEDF05B0F0BD00009ECADC246B
:10B660000EE5A9E093F3A3B50000406E80B502F0AB
:10B670005FF804210348FDF7A7FA03490120487148
:10B6800001BD000024F20200682F002080B515489B
:10B69000002141700161BFF35F8F001D13A102F013
:10B6A0009CF8002002BD80B500218DF8001068468E
:10B6B000FDF7EEFBF1EE100A20F09F00E1EE100A1C
:10B6C000BFF35F8F0848402101609DF80000FDF73F
:10B6D000FCFB00F0ABF808B141DF01BD20BF40BF6B
:10B6E00020BF01BD243F002084E200E0D0F0020032
:10B6F000E8F00200040000002028014604DA4D486A
:10B70000C84000F001007047402808DA0122A1F18A
:10B71000200012FA00F018BF0120C0B270470120CB
:10B72000704700001FB5044651A1684602F055F865
:10B7300002E0684602F055F8029A3AB15168126880
:10B74000204690470028F4D1112000E0002004B0EA
:10B7500010BD00001FB5044648A1684602F03DF840
:10B7600006E05168126820469047684602F039F8B2
:10B77000029A002AF5D11FBD80B51620FFF7BCFF45
:10B7800028B942F20100BDE80240FEF733BE2A4864
:10B7900000784009082803D2EC21C140C80702D430
:10B7A00042F20200EFE72549886820B10A6842F4B6
:10B7B00080020A6001BD2249FFE74FF48000086063
:10B7C00001BD00003EB51F4D287808B108203EBDE0
:10B7D0000121A970FFF7A6FF112820D00020FFF754
:10B7E000B9FF00BF2BA00168019100228DF8002055
:10B7F0006846FDF74DFB144901A810DF0446401EC2
:10B800008041C00F00F00DF80CB120463EBD002075
:10B81000A8706870FFF7B0FF0120FFF79BFF0020C2
:10B820003EBD28709DF80000FDF74FBB054800782D
:10B8300070470000FC06FFBD16E400E0383F002022
:10B8400000E100E0883F00208DBF0200E0B500BFAE
:10B850000DA1684601F0C1FF05E048680968884706
:10B86000684601F0BEFF02990029F6D107BDEDE759
:10B8700040F0020050F002000800000050F002000A
:10B8800060F002000800000060F0020070F00200AA
:10B8900008000000010000077FB506460C0008BF45
:10B8A0000E2071D07248734D20600021684600F070
:10B8B00079F806218DF800608DF80200ADF80410CB
:10B8C00069462268202069DF6B4A551BED082D046C
:10B8D00045F0010528B100F041FD024669A100F0E4
:10B8E00055F800F05DF88DF80100ADF802106946DA
:10B8F0002268402069DF30B100F030FD4FEA0002DD
:10B9000072A100F043F800F044F8F7208DF80060D1
:10B91000ADF8020069462268232069DF28B100F0F3
:10B920001DFD02467CA100F031F800F039F88DF8D9
:10B9300000006946226869DF28B100F00FFD024669
:10B9400087A100F023F800F024F84FF4B0600090D5
:10B9500069462268A12069DF28B100F0FFFC024699
:10B9600092A100F013F800F014F88DF80010694669
:10B970002268A02069DF30B100F0F0FC4FEA00023D
:10B980009FA100F003F8002004B070BD2846FCF72A
:10B99000F9BF684600210022002380E80E007047AE
:10B9A000684600210022002380E80E000120704735
:10B9B0002DE9F04106462F4D376860DF04462E48DA
:10B9C000451BED0830682D04874217D245F0020868
:10B9D000A0A14046FCF7D3FFD6F80030A9A13A4613
:10B9E0004046FCF7D5FF2548B3A1026830689202B3
:10B9F00002F10052121A4046FCF7C4FF1CB920495C
:10BA00000120087009E0204600F0A8FC4FEA00027F
:10BA1000B4A145F00100FCF7B5FF2046BDE8F08178
:10BA2000174900B50878ADF5017D88B903E0052810
:10BA300018BFFEF7DFFC0DF5017D00BD51681268EF
:10BA400004A8904701A801F0CCFE039A002AF5D182
:10BA50004FF4FA70ADF80000694604A861DF0028D1
:10BA6000E5D100BFA7A101A801F0B7FEEDE70000F6
:10BA7000982A002054EE020084EE02000C0100100F
:10BA80008E3F002073645F626C655F6366675F73FF
:10BA9000657428292072657475726E65642025733B
:10BAA000207768656E20617474656D7074696E6767
:10BAB00020746F2073657420424C455F434F4E4E97
:10BAC0005F4346475F4741502E00000073645F624A
:10BAD0006C655F6366675F7365742829207265749F
