:020000040002F8
:10600000F85E0020BDE802006F730200D373020047
:106010007B740200AB7602004F78020000000000A3
:10602000000000000000000000000000EF78020007
:106030001F790200000000005B7A0200977A0200DC
:1060400027E10200BB7A02003DC802009F7B0200EC
:10605000E77D0200337E02004DCC0200A3860200E1
:106060005B94020083AA02005BBA020047C50200EB
:10607000FFC702003BC8020027C902004BC902004B
:1060800037CE0200BBA202008BE40200D5E702007B
:1060900027A302001BE80200DBA502002BE8020098
:1060A0007BE8020073E902007DE902007FE902005B
:1060B00081E9020083E90200000000000000000006
:1060C00085E9020087E9020089E902008BE9020004
:1060D0008DE902008FE9020091E902000000000052
:1060E00000000000000000000000000000000000B0
:1060F00000000000000000000000000000000000A0
:10610000000000000000000000000000000000008F
:10611000000000000000000000000000000000007F
:10612000000000000000000000000000000000006F
:10613000000000000000000000000000000000005F
:10614000000000000000000000000000000000004F
:10615000000000000000000000000000000000003F
:10616000000000000000000000000000000000002F
:10617000000000000000000000000000000000001F
:10618000000000000000000000000000000000000F
:1061900000000000000000000000000000000000FF
:1061A00000000000000000000000000000000000EF
:1061B00000000000000000000000000000000000DF
:1061C00000000000000000000000000000000000CF
:1061D00000000000000000000000000000000000BF
:1061E00000000000000000000000000000000000AF
:1061F000000000000000000000000000000000009F
:106200002DE9F84F74A7A2B0D7E90045CDE90045C4
:106210002C9EDFF8307C04918DF843605FF0000124
:106220006FA40D9112944FF0FF3682469046994626
:106230000FE0C3462C461BF8011B0498D0470028EA
:10624000049000F0B2800D98401C641E0D90F2D1B5
:10625000A84498F80000252807D10021079108914B
:1062600009910A910B910C910DE06A463146404626
:1062700001F01DF8050001D10D98B5E0D9D5012533
:10628000E6E741F0010118F8010F2028F9D0232892
:106290000CD02B2804D02D2805D0302809D086E03A
:1062A00041F00201EFE741F00401ECE741F00801A1
:1062B000E9E741F01001E6E700200F900AE00F98AF
:1062C000B84205DA00EB800302EB4302303A0F924A
:1062D00008F1010898F80020A2F130000A28EED356
:1062E00098F800002E2818BF0E9629D118F8010F33
:1062F0002A280BD1D9F80000C9F8000008F10108DC
:1063000050F8042BC9F800000E9219E02D280CBF9C
:1063100018F8010B002000220E920BE040B90E9AF3
:10632000BA4205DA02EB820403EB4403303B0E93DE
:1063300008F1010898F80030A3F130020A2AEDD3E1
:10634000ADF84010129898F8001000F0BBFF08B1AB
:1063500018F8010B8DF842009DF84200682804BF30
:1063600098F80010682903D162208DF8420008E0F7
:106370006C2804BF98F800006C2804D171218DF8B6
:10638000421008F1010813A806904A4618F8013B8C
:1063900002A9504600F068F838B913AA02A950467D
:1063A00000F0CAF900287FF554AF30461CE02A28D7
:1063B00082D1D9F80020C9F8002052F8040BC9F89E
:1063C000002000280F9003D540420F9041F00401B7
:1063D00008F1010884E70000000000000000000050
:1063E000686A6C747A4C000023B0BDE8F08F6228B4
:1063F00020D0682811D06A2803D06C2827D07128B3
:1064000025D10868C01D20F007000860D0E90023EE
:1064100008300860194610467047002A0A680A606A
:10642000106803D0121D0A6000B217E0121D0A6046
:1064300080B217E0002A0A680A60106803D0121DB3
:106440000A6040B20AE0121D0A60C0B20AE0002AE7
:106450000A680A60106803D0121D0A60C1177047ED
:10646000121D0A60002170477CB50D4611461C467E
:106470002E69B4F1250200F04D811C3A00F08680AF
:10648000121F022A40F282800E3A00F00781521F4A
:106490005AD0093A7AD0921E16D0521E35D0521ECA
:1064A000022A73D9121F30D0521F00F09A80521E58
:1064B0004AD0521E00F0E480D21E00F0FD80921EF1
:1064C00042D0D21E40D02BE195F83A206C2A09D058
:1064D0006869421C6A610A680A6052F8043B0A60F3
:1064E000335427E10A680A6052F8043B0A6000212D
:1064F000009301914FF0FF322A6329466A4600F06B
:1065000096F9002840F1168101E195F83A00012240
:10651000FFF76DFFC5E900010023994204DA6869BD
:10652000411C69612D210DE0288F810704D5686920
:10653000411C69612B2105E0C00722D56869411C17
:106540006961202131541CE095F83A000022FFF7E0
:106550004EFFC5E9000195F83800010711D5D5E9CE
:1065600000230020834208BF82420AD044F020006A
:10657000782806D1686930213154401C411C69617A
:106580003454214668693044E86083E00868C01DDF
:1065900020F007000860D0E9002308300860C5E952
:1065A0000023D5E90001C80F04D06869411C696166
:1065B0002D210DE0288F810704D56869411C696190
:1065C0002B2105E0C00704D56869411C69612021C1
:1065D000315468693044E8602146284600F032FAB8
:1065E000A8E005F13A02507820B14FF0FF340FF6E1
:1065F000243070E01078622808D0682824D06A28F7
:1066000012D06C282ED071280ED02BE00A680A60B8
:1066100052F8040B0A6020B94FF0FF340FF60C302B
:1066200059E0E96A017085E00A680A6052F8040BD3
:106630000A6020B94FF0FF340FF6F0204BE0EA6A11
:10664000D317C0E9002375E00A680A6052F8040B0A
:106650000A6020B94FF0FF340FF6D0203BE0E96A22
:10666000018067E00A680A6052F8040B0A6020B9EA
:106670004FF0FF340FF6B4202DE0E96A016059E0D5
:106680000A680A6052F8040B0A600021C5E900019B
:10669000EE607821284600F029F94BE06C2285F85D
:1066A0003A200B680B6053F8042B0B6052BB4FF081
:1066B000FF340FF6AC200EE095F83A206C2AF0D0AB
:1066C0000868086050F8044B0860EC603CB94FF073
:1066D000FF340FF6702000F00FFE201A76BD2E6BEF
:1066E000002E04D5204600F027FE044608E032467E
:1066F0000021204600F03CFE002814BF041B344655
:10670000AC6117E0294600F092F8002812D54FF04E
:10671000FF3076BD6869411C69612521315409E06B
:106720006969481C686125227254210002D0411C0D
:1067300069613454002076BD2DE9F0410E460546CE
:10674000716B7069B46A091A306A091AB069091A5A
:10675000706A091AF069091A96F838000C1B41078B
:1067600090460DD4002C0BDD2746B0682021A847A9
:106770000028B06057D0F06A401C7F1EF062F4D150
:10678000736942463146284600F0ACFC00284AD1E5
:10679000376A002F0ADDB0683021A8470028B060B2
:1067A00041D0F06A401C7F1EF062F4D1B369F268F8
:1067B0003146284600F096FCA8BB776A002F09DD19
:1067C000B0683021A847B06068B3F06A401C7F1EF3
:1067D000F062F5D1F068B169F36942183146284694
:1067E00000F080FCF8B9B76A002F09DDB0683021ED
:1067F000A847B060B8B1F06A401C7F1EF062F5D1C6
:1068000096F8380041070BD5002C09DDB06820212F
:10681000A847B06038B1F06A401C641EF062F5D140
:106820000020BDE8F0814FF0FF30BDE8F0812DE998
:10683000F8470D46A3B02F6B002F8146904648BF06
:106840006FF0004700F0C0FD696B40180FF62C1187
:106850008128D1E90023CDE9012328BF4FF0FF3083
:106860003ED20024002F2FDDD8F8001001AA684680
:1068700000F01FFD0646002E35D4D8F8000008B9F8
:10688000761E30D4B7421FDB6869301881280AD3DE
:106890000020686303AA29464846FFF74DFF04001D
:1068A00012D40020686103A8D5F814A032466946C6
:1068B000504400F08FFDB244C5F814A058F8040B02
:1068C000002818BFBF1BCDD12CB903AA29464846C2
:1068D000FFF732FF044614B9002068616863204660
:1068E00024B0BDE8F0874FF0FF34F8E72DE9FC470E
:1068F00007468A463E69BAF16F0F08BF082405D0E3
:106900004AF02001782914BF0A2410243C25D7E935
:106910000023BAF1640F18BFBAF1690F9046994687
:1069200006D100218B4203DAD8F1000869EB49094E
:106930000020814508BF80451FD1386BE8B9082C7D
:106940004CD197F83800010748D530203B2586F810
:106950003B0043E000280ED597F8380000F0140003
:10696000102808D17A6B7869121A386A121A511AEB
:106970000029C8BF3962BDE8F3878DF800A0404602
:1069800049462246E31700F079FD3032D0B26D1E41
:106990003A28019504DB9DF80000A0F151018A1806
:1069A0007255404649462246E31700F067FD80468F
:1069B00089460020814508BF804503D0F8687119D9
:1069C0008842DCD3082C09D197F83800010705D597
:1069D000715D302902D06D1E30207055C5F13C012B
:1069E000B9617019F860386B8142B3DA411A3962C3
:1069F0004FF6EF70398F01403987BDE8F3872DE9F5
:106A0000D04306460F4614464FF00008DFF838948E
:106A100012E0E00707D542464B463046394600F0C3
:106A200045FE06460F464046494642464B4600F064
:106A30003DFE641080468946002CEAD13046394636
:106A4000BDE8D0832DE9F34F054641F020048DB019
:106A5000D5E90089612C02AE09D0286B002848BF17
:106A6000062003D408BF672C01D101202863D5E993
:106A7000002358004015401C0ED119030CD00320F0
:106A8000A8619DF8380061381A2802D20FF2F4612B
:106A900011E00FF2F4610EE058004015401C0FD1D8
:106AA00019030DD10320A8619DF8380061381A2818
:106AB00014D30FF2DC61E868032200F08BFCD3E111
:106AC000194621F00043B3F5801F10460DD2002770
:106AD000BB4208BFBA42019703D111E00FF2AC618B
:106AE000E9E701AA00F0B4FE0AE0DFF8607307EB03
:106AF0001352DFF85C3301921940DFF85833194321
:106B0000C5E90001612C0ED1E86830210170811CBB
:106B1000E9609DF8381061290CBF78215821417037
:106B20006869801C6861D5E900AB2BF00043002048
:106B30002AF00002834204BF8242002300F05A81FF
:106B4000612C40F0A980286B00284CBF2120401CFC
:106B500000904046009F7F1C49460022002300F021
:106B6000AFFED94601988DF8082038BF89F000495A
:106B7000001F0190002FD0460DF1090040F349811C
:106B800040F2FF71DFF8D0B20C910646404649460C
:106B90000022002300F0ACFE80F03A814800400D56
:106BA00000F11C0210D0002A0EDD0C98824205DB99
:106BB00009F0004040EA0B01002013E0A44808401F
:106BC00040EA025140460DE029F00043002028F041
:106BD0000002834208BF82420FBF40461C2240464B
:106BE00000F09EFE8046894600F038FFFF1F002F10
:106BF000044609DD00F050FF02460B464046494678
:106C000000F05CFF80468946F01D072104E004F097
:106C10000F0200F8012D2411002C01DD491EF6D5CC
:106C2000491E5CBF002200F8012DF9D5ECE00020E0
:106C3000194602AA0A4400E05B1E12F80149491EE7
:106C40008442F9D00F2804D10DF10900425C521C96
:106C50004254002904D50198001D02AE5B1C01902E
:106C6000591E12D49DF838007218147804F13008B7
:106C70005FFA88F4392CC4BFA0F13A04A044491E3D
:106C800002F80189F1D58DF83800286B002840F111
:106C9000B080591E2963ACE04046494600220023DB
:106CA00000F00EFE019938BF89F0004947F2975075
:106CB00041436A4A91FBF2F20192D2F1070204DDEC
:106CC00040464946FFF79BFE0AE0524200206449D5
:106CD000FFF795FE02460B464046494600F060FF2E
:106CE0008046662C286BDFF87CB106BF019F0A370F
:106CF00006273F18142FC8BF142730208DF808002E
:106D000089460DF1090000E03046002F34DD0646CB
:106D10004046494601F068F801460A4606F1080374
:106D200004200A26B2FBF6F606EB860EA2EB4E0214
:106D3000303203F8012C0A22B6FBF2F202EB820E8B
:106D4000A6EB4E063036401E03F8026DE9D1083F2F
:106D5000002F03F10806D7DD084601F059F8024676
:106D60000B464046494600F0A9FE00225B4600F073
:106D70009DFC80468946CBE70DF10901401A0DF1D3
:106D8000090604E00199491E401E0191761C3178E4
:106D90003029F7D0662C02D10199491C03E0652CFB
:106DA0000CBF012100212B6BCB189842B8BF431EAA
:106DB000002B1ED4834204DAF05C3528A8BF3920AA
:106DC00000DA30201946721E02EB010800E05B1E5B
:106DD00018F80199491E8145F9D0392802D1705C13
:106DE000401C7054002904D50198401C16465B1CB9
:106DF0000190019800B200901BB29DF83810324605
:106E0000284600F035F82FE0C61D002F3FF7BEAE34
:106E100030460DF10901401A009903468842C8BF67
:106E20000B46002B0DF109063FF52FAF8342BFF64D
:106E3000FEAE0DF10900C05C07287FF7F8AE0F2009
:106E4000F6E60000CBCCCC0C0000244002FCFFFF97
:106E5000FFFF0F800000E03F0000F07FA0860100F0
:106E60000000F03F84D797410FB0BDE8F08F0000DD
:106E70002DE9F84783B006468A461746984600F043
:106E80001AFAB8F1000F406A356B90F8009002DCF6
:106E90004FF00108BFA7BDF930404AF02000662836
:106EA00008BF641C15D0672840F0848014F1040FDB
:106EB000C0F28680AC4280F2838096F83800641C71
:106EC000010702D4A845B8BF454620B22D1A48BFD5
:106ED00000250FFA84FAF068B169BAF1000F25DCD9
:106EE0004A1C30234354002D03DC96F83800010778
:106EF00003D5F06800F80290521C15EB0A0FB8BFDA
:106F00006C4220B2441941424445B8BFA046B26128
:106F100071620FFA88F5F561F068B3692A4639465F
:106F2000184400F057FA641BB462C4E022B29045E2
:106F3000084417DA4246394600F04CFAB06940443A
:106F4000B061AAEB0801002D716203DC96F83810DD
:106F50000A0705D5F16801F80090F069401CF0615E
:106F6000B562A8E0394600F035FAB069002D50440A
:106F7000A8EB040803DC96F838100A0703D5F1687B
:106F800001F80090401CB0610FFA88F08542F0686B
:106F9000B369B8BFA8460FFA88F207EB0A01184494
:106FA00000F018FAB0690FFA88F10844B061681A65
:106FB000706280E0BAF1610F14D14FF0700A16E0F0
:106FC000A84504DA96F838100A0758BF45466D1EE2
:106FD00048BF0025BAF1670F14BF4FF0450A4FF0C4
:106FE000650A04E0BAF1410F08BF4FF0500AB169D9
:106FF000F368481CB061002D17F8012B5A5403DCCC
:1070000096F838100A071BD5F168431CB36101F8E4
:107010000090002D14DDA8F101080FFA88F08542D8
:10702000F068B8BFA8460FFA88F23946184400F055
:10703000D1F9B0690FFA88F108446D1AB061756230
:10704000F068B1690844002C80F800A003D42B211B
:107050004170811C03E02D2141706442811C00209D
:107060006A460AE023460A2493FBF4F404EB840501
:10707000A3EB450302F8013B401C24B2002CF1DCD9
:10708000012806DC4AF02002652A04BF302201F8FC
:10709000012B48B9302001F8010B07E0401E1DF814
:1070A0000020303201F8012B0028F7DCF068B269CB
:1070B0001044091AF16196F8380000F01400102805
:1070C0000DD17169B0694118706A4118F0694118B1
:1070D000B06A4118706B8142BCBF411A316204B082
:1070E000BDE8F087F8B505460E4617461C46002059
:1070F00074B117F8011BB068A847B06030B1F06AEE
:10710000401CF0620020641EF3D1F2BD4FF0FF304E
:10711000F2BD00007072696E74665F733A20256E6E
:1071200020646973616C6C6F776564007072696E5E
:1071300074663A2062616420256E20617267756D05
:10714000656E74007072696E74665F733A20626176
:107150006420257320617267756D656E7400000090
:107160007072696E74665F733A2062616420256C88
:107170007320617267756D656E7400000000000019
:10718000000000006E616E004E414E00696E6600A8
:10719000494E46003000F0B4024610689568131856
:1071A000506803EB5004C00721D54D441FE0F0BCEC
:1071B00002F10C00704713F8017B05F8017B491EB2
:1071C000F9D1A0B1B60813F8011B06F00306032E8F
:1071D00008BF13F8016B01EB06214942801C2944CA
:1071E00005D011F8016B05F8016B401EF9D1A342DF
:1071F000DDD013F8016B16F0030104BF13F8011B77
:10720000C91C30090F28DAD113F8010B0F30D6E76B
:10721000613807E005E0A0F161011A2901D20120DF
:10722000704741381A288041C00F7047A0F12101F2
:107230000F290AD3A0F13A02062A06D9A0F15B0170
:10724000062902D37B380428EDE7012070471B484C
:10725000704730B45368D418042B09DA41B105786B
:1072600004F8015B10F8015B15B15B1C491EF3E7E4
:10727000536030BC704738B514461D4661B1FFF706
:10728000E8FF61686A6B204690476FF00102811A3F
:1072900002D0491E03D005E06FF0010032BD4FF06F
:1072A000FF3032BD0021616032BDDA6B1047034B05
:1072B000E1E7024BF9E7024870470000E42F0020A5
:1072C000AC2F00200278C9B28A421AB11CBF10F854
:1072D000012FF9E718BF00207047B1F5807F02D376
:1072E0004FF0FF3070470170012070470078401E5A
:1072F0008041C043C00F704780B500B906A0054962
:107300000B681BB122220021984701E000F08DFD9F
:10731000222002BDE43E0020636F6E7374726169C7
:107320006E742068616E646C65723A2062616420DC
:107330006D6573736167650000F10103810704D017
:1073400010F8011B89B18107FAD10268B2F101314D
:10735000914311F0803F04BF50F8042FF6E710F876
:10736000011B11B110F8011BFBE7C01A7047FEE7C3
:10737000C9B2830706D0521E22D310F8013B9942AE
:10738000F7D11FE0083A13D302F1040241EA0121C8
:1073900041EA014150F8043B121F21BF4B40A3F1C9
:1073A000013C2CEA030C1CF0803FF3D0C9B2001F53
:1073B000083210F8013B521E28BF91EA030FF8D89B
:1073C00018BF0120401E704780B5FFF740FF006CDA
:1073D00002BDFEE762B38B0708D0521E11F8013BD5
:1073E00000F8013B00F024808B07F6D1830740F0C2
:1073F000208000BF103A07D330B4B1E83810103AFB
:10740000A0E83810F9D230BC530724BFB1E8081007
:10741000A0E8081044BF51F8043B40F8043BD207F1
:1074200024BF31F8022B20F8022B44BF0B780370E5
:107430007047121F17D35B0009D151F8043B20F8A5
:10744000023B1B0C121F20F8023BF6D20BE051F856
:10745000043B00F8013B1B0A20F8023B1B0C121FE7
:1074600000F8013BF3D238BF121D521E24BF11F8A1
:10747000013B00F8013BF8D87047FEE7B3BBD9B138
:10748000B2F5803F7DD2022A1ED98C46B1FBF2F1C3
:1074900002FB11C31B0443EA1043B3FBF2FC02FBE3
:1074A0001C3380B240EA0343B3FBF2F002FB10321C
:1074B00040EA0C4000237047022A05D98446B0FBFD
:1074C000F2F002FB10C270474AB105D100F0010290
:1074D00049085FEA3000704700220023704700F03F
:1074E000A7BC0B000200002100207047904271EB06
:1074F000030CF6D3B3F5803F2FD2F0B5B3FA83F780
:10750000B1FA81F4A7F10F0E3D1B5340CEF12006D6
:1075100002FA0EF2F3415340B5F10F0746D80F3C83
:107520002C444140C4F12006A040F1414140B1FB50
:10753000F3F603FB1611A2FB0645001BA94102D27C
:10754000761E8018594180EA010221FA0EF362FA90
:107550000EF200215A403046F0BD30B4B1FBF3FCCE
:1075600003FB1C11A2FB0C45001BA94103D2ACF18B
:10757000010C8018594130BC02460B466046002180
:107580007047B2F1807F65D3F0B5B2FA82F7B1FAF5
:1075900081F4C7F10F063D1B22FA06F307F1110E25
:1075A000F24120355A40B5F10F07B8D94140C4F136
:1075B0002006A040F1414140B1FBF3FC03FB1C114C
:1075C000A2FB0C45001BA94103D2BCF1010C8018A1
:1075D00059410F2F12D30F3FC90341EA5041B1FB6C
:1075E000F3F603FB1611A2FB0645D4EBC030A9410C
:1075F00002D2761E8018594146EACC3C07B341407E
:10760000C7F12006B840F1414140B1FBF3F603FB5E
:107610001611A2FB0645001BA94102D2761E801856
:10762000594180EA010221FA0EF3C7F1200462FAFF
:107630000EF20CFA07F05A402CFA04F13043F0BD78
:1076400080EA010221FA0EF3002162FA0EF260468E
:107650005A40F0BD8C46B1FBF2F102FB11C31B0294
:1076600043EA1063B3FBF2FC02FB1C331B024CEA3F
:10767000002043EA1063B3FBF2FC02FB1C331B0245
:107680004CEA002043EA1063B3FBF2FC02FB1C331C
:107690001B024CEA002043EA1063B3FBF2FC02FB3E
:1076A0001C324CEA002000237047FEE7B0B581EAA7
:1076B000030C0CF0004C40F2FF7515EA11541DBF8D
:1076C00015EA1357AC42AF4239E0E41923EA4553B7
:1076D00043F48013C90241F0004141EA505EC70201
:1076E0001100A7FB020200284FF00000EEFB012072
:1076F0004FF00001E3FB072118BF42F001024018E0
:1077000000214941E3FB0E01A4F580640F0302D27E
:1077100052004041494154F101046CDD470872F1C7
:10772000004250F1000051EB0451A1F580115CBF03
:1077300041EA0C01B0BD4CEA05510020B0BD05EA9C
:107740001357AC4214BFAF4241E050EA410E1CBF98
:1077500052EA430E02E061460020B0BD24423C44A0
:107760001BD15FEA070EF6D0090302BF01460020D5
:10777000AEF1140EB1FA81F7AEEB070401FA07FE81
:107780000C37C7F1200100FA07F7C8404EEA000E97
:1077900023EA455343F48013A2E733F00043B3FADE
:1077A00083F704BFB2FA82FE77440B3FE41BB7F1C4
:1077B000200E2FBF02FA0EF3BB40C7F1200E22FAB3
:1077C0000EFE38BF43EA0E03BA40641C82E750EA5B
:1077D000410E14BF52EA430E6FF000014FF4001740
:1077E00017EB430F8ABF194617EB410FB5E74CEA79
:1077F00005510020B0BDD4F10104B4F120070FDA27
:10780000C4F12007520828BF42F0010210FA07F520
:1078100001FA07F7E1BF2A43E0403843E1400FE0B7
:10782000352C98DCC7F1200452EA400220FA07F216
:1078300018BF42F0010231FA07F0A1400A430021CB
:1078400072F1004250F1000051EB0C01B0BDFEE7B7
:1078500010B5144600F002F8226010BDC1F30A53BF
:1078600043B14A0012F5001F28D2A3F2FE32A1EB69
:107870000251704750EA410C20D001F0004C31EA2F
:107880000C01B1FA81F204BFB0FA80F3D2180B3ABE
:10789000B2F120032CBF00FA03F1914041EA0C0140
:1078A0003EBFC2F1200C20FA0CF319439040524223
:1078B00040F2FD33D21A01EB0351704700227047AA
:1078C0004FF4001C1CEB410F94BF1CEB430F09E06D
:1078D00041EA030C50EA4C0C52EA0C0C03D29942D8
:1078E00008BF9042704714BF8B4282427047FEE748
:1078F0004FF4001C1CEB410F94BF1CEB430F09E03D
:1079000041EA030C50EA4C0C52EA0C0C03D28B42B5
:1079100008BF8242704714BF994290427047FEE709
:10792000124254D440F2FF7C1CEA11530FD063453D
:1079300031D09B1863453CBF01EB0251704701F009
:10794000004141EA0C510020AFF30080704750EA3B
:10795000410320D001F0004C91EA0C011CD0B1FA97
:1079600081F30B3B9A420DD9D21A994051EA0C018E
:10797000C3F1200C20FA0CFC61449840531C40F2E7
:10798000FF7CD7E7914041EA0C01C2F1200C20FABC
:107990000CF3194390407047B0FA80F31533202B55
:1079A000E0D3202AEED3203A203B9A4209D9D21ABA
:1079B00000FA03F141EA0C010020531C40F2FF7C65
:1079C000B8E700FA02F141EA0C0100207047524288
:1079D00040F2FF7C1CEA11530DD06345DBD0B2EBC3
:1079E000030C3CBFA1EB025170470CF1010221EAEC
:1079F000035141F4801150EA410CCCD001F0004C0D
:107A0000352A27DC30B481EA0C01B2F1200309DA0F
:107A1000C2F12003044601FA03F5D0402843D140C7
:107A20009C400CE0C3F12002450020FA03F418BF8B
:107A300044F0010421FA03F091400C43002174F159
:107A4000004550F1000051EB0C01244230BC7FF4A2
:107A50007BAF70476146002076E7FEE7C1F30A532B
:107A600040F2FE329B1A14DDD3F120034FEAE1729B
:107A700008DDC90241EA505141F00040D840801869
:107A80005040704703F2E13010B1D24382F0004021
:107A9000704700207047FEE7C11768B14840401AA0
:107AA000B0FA80F29040D21CC907C2F5846241EA64
:107AB000025202EBD02140057047FEE770B44FF050
:107AC000004591EA030F40F1B5816B40841A71EBD8
:107AD000030603D2001BB141121973414FF4001C7D
:107AE0001CEB410F34BF7CEB430442E00C0DA4EBD4
:107AF0001356352E4FDC45EAC323DB0A45EAC12184
:107B0000C912B6F120050DDD63FA05F6EB4086EAF1
:107B10000305124218BF45F00105C01851F10001DC
:107B20000CD213E062FA06F5F2405540F3415A4098
:107B3000B340F3405A408018594107D349085FEADF
:107B400030005FEA350528BF45F0010501F58011D9
:107B5000420875F1004250F1000041EB04514E0023
:107B600016F5001F70BC38BF70470020090D0905CD
:107B700070471CEB410F10D252EA43060BD0BCEB0E
:107B8000410F05D80C0DAB43661E342EB6DD02E066
:107B9000AB438018594170BC704770BC7047FEE71A
:107BA000F0B540F2FF7581EA030C0CF0004C15EAC9
:107BB00011541DBF15EA1357AC42AF42E5E0BC417A
:107BC000C1F31301C3F31303801A994143F48013E3
:107BD00004D2641E4000494180185941C90241EA5B
:107BE0005051B1FBF3F603FB1611A2FB0675D7EB60
:107BF000C020A94102D2761E80185941C90241EA2B
:107C00005051B1FBF3FE03FB1E11A2FB0E75D7EB27
:107C1000C020A94103D2AEF1010E8018594189025A
:107C200041EA9051760546EA8E2EB1FBF3F603FB4E
:107C30001611A2FB0675D7EB8020A94102D2761E51
:107C400080185941C90241EA50514EEA060EB1FB73
:107C5000F3F603FB1611A2FB0675D7EBC020A94172
:107C600002D2761E80185941C90241EA5051B1FB37
:107C7000F3F703FB1711A2FB0735D3EBC020A94193
:107C800067F100070CBF004247F0010766F3D527F4
:107C90004FEA1E31B80814F5806412DDBD0775F196
:107CA000004250EB0E5051EB045111F5801F5CBFA8
:107CB00041EA0C01F0BD4CF07F6141F0E041002051
:107CC000F0BDBD076D0840EA0E5041F48011D4F1BB
:107CD0000104B4F120060ADAC4F120060200E040F3
:107CE00001FA06F3E1401843B24015430EE0342C8C
:107CF00013DCC6F1200445EA40056D0820FA06F2BF
:107D0000154321FA06F0A1400D43002175F1004210
:107D100050F1000051EB0C01F0BD00205FEA0C01B6
:107D2000F0BDCFB992185B41B3FA83F704BFB2FA42
:107D300082F6BF190B3FB7F120062FBF02FA06F3F8
:107D4000BB40C7F1200622FA06F638BF3343BA40DB
:107D50001CB1E419641E33E77F4231F00041B1FAEF
:107D600081F404BFB0FA80F6A4190B3CB4F12006EC
:107D70002FBF00FA06F1A140C4F1200620FA06F652
:107D800038BF3143A0403C1B1AE7AC421ABF05EA9A
:107D90001357AF4212E050EA41061CBF52EA4306B5
:107DA000BFE750EA4107304661461CBF41EA055132
:107DB000F0BD52EA430C08BFC143F0BD00204FF4B0
:107DC000001616EB410F98BF16EB430F08BF16EBDA
:107DD000410F24BFC14305E016EB430F0CBF6146C2
:107DE0004CEA0551F0BDFEE7400D491840EA8120FC
:107DF0000CD2490DA1F58061491C40F0004005DB23
:107E0000D1F11F0154BFC840C01770470020704710
:107E1000014648B1B0FA80F18840C91CC1F58461BF
:107E2000090501EBD02140057047012000F0B6B8EC
:107E30007047FEE7841A71EB030604D26E40001B04
:107E4000B141121973414FF4001C1CEB410F34BFB8
:107E50007CEB430682E00C0DA4EB1356362E7BDC44
:107E6000012E45EAC32341DC43EA525312BFD2023A
:107E700092025B08240545EAC12141EA5051D2EB48
:107E8000C020994125D407D1B0FA80F610FA06F146
:107E900062D00020203608E0B1FA81F6B140C6F188
:107EA000200220FA02F21143B0404FEAF474B4EB1E
:107EB000465434F001064FEA74040AD8D6F5001689
:107EC000760D04F00044F04061FA06F25040F140B3
:107ED0004840C00A40EA415021F0004128BF5FEA13
:107EE000500550F1000044EBD12135E0DB0A45EAB2
:107EF000C121C90AB6F120050EDD42EA0242120C88
:107F0000C5F1200603FA06F6EB4042EA06056D428B
:107F1000984161F100010DE062FA06F5F24055402A
:107F200063FA06FC82EA0C02F3405A406D4290412B
:107F300061EB030111F4801F05D1641E620502D0BC
:107F40006D004041494121F48011430875F100431F
:107F500050F1000041EB045170BC70471CEB410F25
:107F600015D223F0004352EA43060BD04FEA4C0CE3
:107F7000BCEB410F04D80C0D661E342EB7DDEBE7C9
:107F8000801A994150EA410608BF0021E4E708BF82
:107F90001CEB430F28BF6FF00001DDE72021090330
:107FA00026311820ABBEF9E70000000000000000F9
:107FB00000F068BB2DE9F0410546287858BBDFF892
:107FC0007C15DFF87C650FF2C0588E1BF60836046E
:107FD000002746F0010610E02869C05D00F02FFC84
:107FE000040009D0112CF7D022464146304600F05B
:107FF000C1FD204600F046FB7F1CA88A8742EBD3D8
:108000002969084410F8010C0D2804D10A2000F059
:1080100016FC1128FAD0BDE8F081007840B9DFF8ED
:10802000242510883B2176DF002818BF00F02ABBEA
:10803000704700F027BB80B5002001F05DF808B163
:1080400000F020FB01F01DF908B100F01BFB33DF4D
:1080500000B10BE001BD80B530B1032805D102208D
:1080600001F04AF808B101E0ABE001BDBDE8024013
:1080700000F008BB38B50446DFF8C004DFF8C024C0
:10808000DFF8C0542188821AD208120428881029E7
:1080900042F003020CD011291CD013292CD0212925
:1080A00021D03B2932D052292BD056292ED031BD98
:1080B0000FF20051104600F05AFD072001F01CF8A5
:1080C00008B100F0DFFAA188298005F1200001F055
:1080D00055F91EE00FF2E841104600F048FD4FF65A
:1080E000FF70288031BD0FF280500188ADF800107C
:1080F0006946A0888FDF0CE00023002285217FDF06
:1081000007E0002300220021B1DF02E0A088132154
:1081100076DF08B100F0B6FA31BDDFF828044B88ED
:1081200002889A4200D0704710B50A8840F677233B
:108130009A4213D18B88DFF808440FF29441DB1E7A
:1081400043809BB2DFF8F403001BC008BDE8104079
:1081500000041A4640F0030000F012BD10BD10B537
:10816000DFF8E443DFF80C14204601F0C4F908B14D
:1081700000F088FAF721204601F0CCF918B1BDE8EB
:10818000104000F07FBA10BD80B5DFF8B8130A8840
:10819000042804D0072806D00A2811D111E01321A1
:1081A000104676DF07E04FF6FF70824208D101F1FA
:1081B0002C0001F00EFD082818BF002800D055E75C
:1081C00001BDBDE8014036E738B5017819B1022993
:1081D0002FD02ED331BDDFF87443DFF868532178F8
:1081E000201D084400F013FB2078401CC1B2621827
:1081F0002070D2780A2A18BF0D2A03D06A88C0B22C
:10820000904219D3022911DB20782B88ADF80000A9
:108210006A46211D281D01F004FE082806D01328F7
:10822000F2D005281CBF002800F02CFA0020207096
:1082300031BD406800F026FA31BD00002DE9F84359
:108240002DED048BB6B005A80FF2A031BD4D142260
:10825000FFF7D0F80EA80FF214411822FFF7CAF862
:1082600005F522700A9005F562714FF480700B904D
:108270000C910D900723B64A0AA90EA800F07CFACB
:1082800008B100F0FFF94FF40041002000F014FBAA
:1082900008B100F0F7F901F001FE02F045F808B16D
:1082A00000F0F0F9AB49032000F032FF08B100F014
:1082B000E9F90DF10201002001F033F808B100F0F6
:1082C000E1F902F0B9F808B100F0DCF902F030F998
:1082D00008B100F0D7F90020039003A9012002F0B3
:1082E00091F908B100F0CEF903A802F017FA08B12D
:1082F00000F0C8F911208DF802000B229FA10DF1AA
:1083000002007CDF08B100F0BDF903A800210022C3
:10831000C0E9001210203C21ADF80E10ADF80C00A1
:108320004FF4C871ADF81020ADF8121003A87ADF31
:1083300008B100F0A7F9FFF712FF8748049004A9DD
:1083400005F1200001F008F808B100F09BF983481E
:10835000039003A9281D01F007FD08B100F092F970
:10836000AC210AA802F08AFB02208DF82800002127
:1083700005208DF82B008DF82A1005F521700121BC
:108380001E90ADF874108DF8A41029A84021C1608A
:1083900044F2506101617249816205F12C000AA921
:1083A00001F076FA08B100F06DF9012105F12C0019
:1083B00001F06BFA1C210AA802F060FB00200A9071
:1083C0004FF420314FF470200C900B9100200321CA
:1083D000ADF836008DF838008DF8341061486249E8
:1083E0000F9010910AA802F0B3FB08B100F04AF90F
:1083F00083A0534E02F070FCDFF8400185A1861B7C
:10840000F608360446F00306304600F0B0FB0321C0
:1084100005F12C0001F0B2FA002867D000F032F923
:1084200064E00A2391FBF3F304FB13113031115480
:10843000401C19460029F4DC401E05AF04E0145C22
:108440007C54ADF80030401EBDF80030BDF800107F
:108450005B1C0028F3D52E207854ADF800309FED3A
:10846000438B25E0B2EE040A20EE809ABDEEC90AE5
:1084700010EE100A30307854ADF8002010EE900A5B
:1084800002F03EFC53EC182BFFF710F90446BDEE4A
:10849000C90A894610EE100AFFF7FEFA02460B469B
:1084A00020464946FFF70AFB02F04EFC00EE900A18
:1084B000BDF80020BDF80010521C40460028A0F175
:1084C0000108CFD143207854ADF800206A462B88AC
:1084D00005A9281D01F0A5FC61A04FF4FA7440F035
:1084E00001094FF47A40C847641EFAD102A84CDF54
:1084F0000298FFF7D1FA0022DFF87C30FFF7D6F8B8
:1085000002F022FC08EE100ABCEEC80A10EE102A97
:108510004BA1304600F02EFB0C20ADF80000BDEE64
:10852000C80AF8EEC00A00204FF0020878EE600A90
:1085300001AA10EE101A0A247CE7000024E50200CC
:108540000CE50200E02A00205C3E0020DC38002020
:10855000C981020089810200B17F0200B57F02005B
:10856000578002001B8002003380020000000000E0
:10857000000024401B8102000000D03F4E6F726457
:1085800069635F55415254004661696C65642072AD
:108590006563656976696E67204E5553206D657316
:1085A000736167652E204572726F7220307825786E
:1085B0002E200000436F6E6E6563746564000000DA
:1085C000446973636F6E6E656374656400000000D8
:1085D00044617461206C656E20697320736574203A
:1085E000746F2030782558282564290054656D70F3
:1085F000657261747572653A000000000000000049
:108600000D0A5541525420737461727465642E0DC5
:108610000A0000004465627567206C6F6767696EC9
:108620006720666F722055415254206F7665722024
:1086300052545420737461727465642E00000000FB
:1086400041637475616C2074656D706572617475D9
:1086500072653A202566000000000000000000005E
:108660000338FDD87047000000000000080000003B
:1086700006000000050000000700000000000000E8
:1086800000E0D7011FB5694600220023002481E8DD
:108690001C0002906A46002144F2010002F088FBAF
:1086A0001FBDFEE71CB50478784B1B5D2BB102B0F3
:1086B000BDE81040001D02F094BC02B0BDE81040BF
:1086C0000C3002F0DDBE1CB50478704B1B5D2BB185
:1086D00002B0BDE81040001D02F0CEBC02B0BDE803
:1086E00010400C3002F044BF1CB50178684C0029E2
:1086F0002CD0022922D03DD24268117804F1180012
:1087000003F09AF8A16A20B101228DF800200190AF
:1087100006E0206A626A101A04D000208DF800007A
:1087200068468847206AA18B626A101A814202D388
:1087300000F080F813BD0120207013BD8DF80010EB
:108740000122C068019000F076F810E004F12C01DD
:1087500004F1300003F07DF830B9012204F12C015E
:10876000201DFFF79FFF13BD03208DF80000684612
:10877000A16A884713BD0000F8B5454E05460C00B8
:1087800088B01F46B26208BF07203ED062682168E9
:1087900092B206F1180003F03CF8002835D1E268E7
:1087A000A16892B206F1300003F033F868BB684666
:1087B00039A12022FEF71EFE68690690287C00B1D0
:1087C00001208DF814008DF81C70687C00B10E201B
:1087D0008DF815002F4AE8680290A8680390296870
:1087E0000191694668680090301D03F053F860B944
:1087F0003070286810F1010F06D0012206F12D011A
:10880000301DFFF760FF00E0002009B0F0BD70B53B
:108810001F4C2678014604F1180003F01AF80546AB
:1088200036B10021217000F005F808B1FFF72AFFEA
:10883000284670BD012204F12D01201D43E738B503
:108840000146134D05F1300002F0F6FF04001BD184
:108850002A790E49885C20B105F1080002F002FC7B
:1088600003E005F1100002F053FE68B905F12C0198
:1088700005F1300002F0EDFF30B9012205F12C01C5
:10888000281DFFF70FFF0446204632BDA43E0020FE
:10889000982A0020E9860200FFFFFFFFFFFFFFFF8D
:1088A000FFFFFFFFFFFFFFFF0000000000000000D0
:1088B0000000D6010601000080B5DFF87405FF2135
:1088C000816000210160416000F21440416001605C
:1088D0000173DFF8600503F00DF820B90FF288503E
:1088E00003F0B2F8002002BD30B591B1DFF84825A1
:1088F000DFF848150568DFF84835511A002200E016
:10890000521CB2EBD10F06D233F82240AC42F7D161
:108910000260002030BD052030BD01B56846FFF77C
:10892000E3FF28B9DFF81C15009851F8300002BDAC
:10893000002002BD00000000491EDFF808250329C1
:1089400081B002EBC0000BD8DFE801F0020406089A
:10895000022006E0042004E0007902E0407900E013
:10896000002001B0704781B0024600201368C3F3B5
:1089700080029AB103F00300012802D0022807D038
:108980000BE00868C3F38312921C1018086004E01F
:1089900008689B0D9B1C1B180B60012001B07047E1
:1089A000F8B5DFF88C4484B004F5836003F09EF8DA
:1089B00004F21445284603F099F86068A76800900F
:1089C0000026009904F10C00394000F0E9F9002874
:1089D000F7D1009A04F10C013A4051F8221001AA93
:1089E00000F0E2F9F5D90199BDF80A0001F00301A0
:1089F00001290AD002290FD1019906460098890D54
:108A0000C91C00EB9100009006E006460198009911
:108A1000C0F3831041180091284603F069F808B1AB
:108A200000986060304605B0F0BD80B50021DFF8E9
:108A3000180403F013F880F3100002BD2DE9F84F7D
:108A40000446884693461F460A9DDFF8E493FFF7E5
:108A5000ECFF09F10C0A7E1C00042E4040EA144091
:108A6000E4004AF8260004F0380444EA8B14C4F306
:108A7000090409F10C0044EA88242F4044F0010461
:108A800040F82740BDE8F18F2DE9FC4188460021E0
:108A90008DF800101646DFF898730446684603F018
:108AA0002FF83968C8F80010A51C00F02BF807F261
:108AB0001C480BE00121404603F000F8FFF770FF6F
:108AC0000146404602F0FAFF00F01CF8A942F1D33B
:108AD0002EB1A40104F4707444F0050402E0A4056E
:108AE00044F006043968B868014007EB8101CC60A6
:108AF0003A689DF80000AD183D6003F01EF80120B3
:108B0000BDE8F681B8683968401C411A7868411898
:108B100070472DE9FE43DFF8186304460D46904682
:108B20009946B768012201A94846FFF7ADFFA8B1F1
:108B30000198801C002108E007EA000206EB82028F
:108B400058F82130D360401C491C4945F4D30097A4
:108B50004A46019B29462046FFF770FF96F82004FD
:108B600018B100F017F80028FBD1BDE8F783002307
:108B70000022CEE780B50092012300F009F801BD84
:108B8000E0B5009201936A460223FFF7C2FF07BDDA
:108B90006A46BEE72DE9F847A54E706831688842FD
:108BA00085B01DD006F582670020B860BFF34F8FF7
:108BB0007068B468009006F10C00009901E006F1BD
:108BC0000C00214000F0ECF8002800F0CA80B868E2
:108BD000002840F0C680306800998142EFD3706071
:108BE0000020BBE0029965F39F51029105F1080155
:108BF00002F082FE5FEA000A4ED002F0C4FE00F0EE
:108C0000C9F800982040641C241AA40006F10C0145
:108C1000AC4201EB800119D234B9284606F10C01AF
:108C20004FF00008002503E0204606F10C082D1B3C
:108C3000C4B208232246504602F0FAFEB8F1000FF3
:108C400009D004F10803EAB2414601E008232A46AC
:108C5000504602F0EDFE009809F1030100EB91008F
:108C6000009039E0029901F0030101295AD10299DB
:108C7000029AC1F383110529C8BF062122F470723C
:108C800042EA811202920299C1F38311891C890080
:108C900002F032FE5FEA000A44D002F074FE00F0F7
:108CA00079F84FF008094FF0000810E00098411CD7
:108CB000009106F10C05204005EB80014B46042293
:108CC000504602F0B5FE09F1040908F101080298C6
:108CD000C0F383108045E9D33C68B86870B1504652
:108CE00002F055FE32E0E0684179012904D12268A2
:108CF0001368514620469847E0680468002CF2D17A
:108D0000504602F044FE00208DF8040001A802F055
:108D1000F7FEB86808B9009971609DF8040002F088
:108D20000CFF13E03C6805E021688A682046904704
:108D3000E0680468002CF7D14448404A45A1801AF5
:108D4000C008000440F00200FFF711FF70683168AE
:108D500088420CBF0120002080F0010006B0BDE871
:108D6000F0870020009A06F10C01224051F82210F1
:108D700002AA00F019F8F5D902992E4801F0030172
:108D800002297FF46FAF029DAD0DA946502DA8BFFB
:108D9000502527E70023082202A9504602F048BECA
:108DA00000EB81006946DEE542F82010401C009986
:108DB000491C01280091704730B5024600201C4B29
:108DC000D3F8101400E0096889B1C9680C798442AD
:108DD000F9D1401C0A28F3DB4FF0FF3030BDC968E1
:108DE0000D682560D3F81034D9680A6030BD10F1E1
:108DF000010FFBD0D1680871D3F81014D468002992
:108E0000EDD1C3F81024216030BD10B510480468BE
:108E10000121017408E0E1680120487120462268C0
:108E200051688847E0680468002CF4D110BD000048
:108E30002431002088E8020074E502000CE50200FD
:108E4000000000000CE502004035002024E502008F
:108E5000343500204261636B656E647320666C7507
:108E60007368656400000000943A00207F000000F1
:108E7000303E0020042838BF02F0C0BE00207047FA
:108E80002DE9F8438046894602F0CCFE00240428F0
:108E90002FD2DFF8306300EB400175183718B9F1B5
:108EA000000F14D0B9F1020F1AD01AD22C786878BA
:108EB00050B106F10F024FF4004106F15C0001F0E1
:108EC00069FA08B986F80F80A878387409E006F1C5
:108ED0005C0001F077FAAC78387CA04209D100E060
:108EE0006C7820001CBFB169002902D0BDE8F443B2
:108EF0000847BDE8F18300780221C1E710B5B14908
:108F0000887B48B10024204602F054FE641C042CE7
:108F100006D2022CFAD0F6E7BDE8104002F04EBEB1
:108F200010BD00002DE9FC41A64E0446707B0027D1
:108F300010B17773FFF7E2FF8DF800402046172845
:108F40000190A14DDFF88482A14C00F2BE80DFE8E1
:108F500000F00C1515282F3A4F5559615961B76E1D
:108F60006E6E6E6E9DA1A7AEB7B7FFF7C7FF06F195
:108F70001C0001F027FA07460020A5E09DF80070CC
:108F800000F0A9F830B100F0A9F8022F14BF404654
:108F9000904821E002F00AFE022F0CBF204628462E
:108FA0001AE000F098F8A0B100F098F88A4813E0B1
:108FB00000F091F818B100F091F840460CE002F092
:108FC000F5FD284608E000F086F810B100F086F8BC
:108FD00001E000F07DF8204600219DF8002032736A
:108FE00000234FF47A72FEF749FA0146002218E096
:108FF000002002F0F5FD0620307307E000F068F86D
:10900000072061E00120707302F0EAFD002240F6C3
:10901000CD4106E00120707302F0E2FD00224FF422
:10902000804106F11C0001F0B5F907464DE006F15C
:109030003C0001F0C7F907460198D0F111001FD09C
:10904000F7B9022817D380B2C8214843C117C90312
:1090500041EA5041C00310F5FA7041F100014FF4AC
:109060007A720023FEF70AFA0146002206F13C005C
:1090700001F090F90746022002F098FD012003E07C
:10908000022002F097FD0020B0731EE0FFF736FFCC
:10909000122019E0FFF732FF00F01AF8132013E056
:1090A000FFF72CFF012002F081FD14200CE0FFF7F8
:1090B00025FF00F00DF8012002F078FD152003E0F7
:1090C00002F085FD9DF8000030733846BDE8F6815A
:1090D000002002F06BBD002002F064BD002002F011
:1090E00069BD3848017DCA0744BF007BFFF71ABF3E
:1090F0007047022002F074BD80B5324A137D002112
:10910000DA0702D5FFF70EFF0146084602BD000050
:1091100070B505462B48002445618161A8071ED51E
:10912000002601220121304600F02FF8761C042E83
:10913000044601D2002CF4D034B940F26662042116
:109140003CA002F047FE044614B902F078FE044643
:109150002CB9224A36A0002101F008F90446E8079C
:1091600011D5012002F072FD2CB91D4A2EA000215C
:1091700001F0FCF8044634B9DFF868202BA0012187
:1091800001F0F4F80446204670BD18B503460020EF
:10919000042B14D2012A04D101290CBF03F10E02C1
:1091A0000022084C03EB4303234431B1022902D0CF
:1091B00005D21A7012BD5A7012BD9A7012BD0720E6
:1091C00012BD0000143B0020F401C800F401D007D8
:1091D000F4016400F4018403F4019001F78E0200AD
:1091E000E3900200F390020010B5042817D2002982
:1091F00014BF0324002402F025FD4FF0A04101EB31
:109200008000D0F8001721F44031C0F80017D0F8E2
:10921000001741EA0441C0F80017002010BD0620E5
:1092200010BD0121E0E70000303B0020503B002052
:10923000703B00200D000300818E02000E00030031
:10924000818E02000F000300818E020010000300D7
:10925000818E020080B5012200F05AF8002818BF64
:1092600007280DD100F058F8002818BF072807D1AB
:109270000A22002100F04DF8002814BF0728002022
:1092800002BD80B50020FFF7CCFF002818BF0628DC
:1092900006D10120FFF7C5FF002814BF06280020D3
:1092A00002BD10B52B4C014609886068102902D018
:1092B00011291FD010BDC8B901220021FFF765FF99
:1092C000002818BF07280CD100F026F8002818BF86
:1092D000072806D1042200F01BF8002818BF072831
:1092E00004D000281EBF2168002988476068401C00
:1092F000606010BD401E606009D1FFF7ABFF002821
:109300001CBF2168002902D0BDE81040084710BDED
:1093100002210020FFF739BF072202210120FFF7B9
:1093200034BF70B50B4E0C46002530605CB1012097
:10933000FFF7A0FD10B10221217004E0FFF79AFDB4
:1093400000B10B202070706810B9FFF783FF05464D
:10935000284670BDB03E0020002818BF002901D16A
:109360000E2070470278DE2A01D108207047096874
:109370004160DE2101704FF6FF7107E008B90E2051
:1093800070470278DE2A01D0082070474180002013
:1093900070470246107A58B15088002166DF08B93C
:1093A0001172704711281CBF5168084701201072C4
:1093B000704738B505460C0018BF002D84B04AD060
:1093C0002078DE2847D1A9886088814204BF2046E2
:1093D000FFF7DFFF2888012804D0112834D0512856
:1093E0000DD038E0287A012802BFA9886088814220
:1093F00031D1012020722046FFF7CBFF2BE0A88857
:109400006188884204BFA879022824D1A87B042857
:109410001CBF062805281ED16846102101F02EFB2E
:1094200002208DF800004FF4C071ADF80410A87B45
:10943000052804BF0021ADF80410A8886946B0DFF4
:1094400048B16168884706E0A8886188884204BFFF
:109450004FF6FF70608005B030BDFEE7F721018058
:1094600017214180002101714171FB2181711B2174
:10947000C1717047F8B505460FF2B03084B0D0E93D
:10948000002300BF95A0CDE90223D0E90067ADF825
:109490000810ADF80A10CDE900676A4602A928460F
:1094A00090DF040024D002F0E5FC03468248834E9E
:1094B0008CA1861BF608360446F001062A46304683
:1094C000FFF75EFBBDF80000BDF80230002808BFC2
:1094D000002B05D04FEA000295A13046FFF750FB64
:1094E000BDF8042022B100BFA1A13046FFF742FB26
:1094F000204605B0F0BD80B508B90E2002BD01615F
:10950000F72101804180FB210171801DFFF7A6FF3B
:10951000002002BD08B90E207047A1F11702E12A10
:1095200001D30720704701800020704702469088D1
:10953000002800D07047F0B50E468BB05E495F4CF6
:10954000B2F80000A0A50C1BE4082404102844F085
:1095500001040BD011282DD0232800F0908024285E
:109560006FD03A282AD0552848D092E0B71D3079DC
:10957000B871D07B012803D0022803D1708800E0A5
:10958000308838803988788888420ED20020A5DF5C
:1095900010B90121797108E0112802D10120387138
:1095A00003E002F067FC00F08BF8B979F8798842A3
:1095B0006FD26BE0B01DFFF751FF6AE0B71D508915
:1095C0003988884228BF0846788078881728B8BF2D
:1095D00017207880316900291CBF7879002809D0CC
:1095E00094A100F072F869467888ADF8040030461E
:1095F000326990470020787138714AE0D088B71DF1
:1096000017283988B8BF1720884228BF08467880B5
:1096100000203871B5DF38B102F02CFC4FEA0002AF
:1096200076A12046FFF7A6FA7979002931D1306971
:1096300000282ED081A100F048F87888ADF8040009
:1096400018E0111D68462C22FDF7D4FEBDF800106D
:10965000BDF8040006EBC1077873D6F81000C0B15E
:1096600078A0D0E90023CDE90023ADF80210787B83
:109670008DF80400694632693046904709E0B01D14
:1096800012898179D2B2914288BF11460020FFF73A
:10969000F1FEB07A68B1F1880020A5DF18B9B07288
:1096A0000120F07205E0112803D002F0E3FB00F086
:1096B00007F80BB0F0BD000014E502000CE5020055
:1096C000024629462046FFF755BA0020D1E900237B
:1096D000CDE90023ADF80200704700000000000053
:1096E0000000000073645F626C655F6761705F64B7
:1096F0006174615F6C656E6774685F7570646174D6
:1097000065282920287265717565737429206F6E2C
:1097100020636F6E6E656374696F6E203078257894
:109720002072657475726E65642025732E000000CA
:10973000546865207265717565737465642054584A
:109740002F5258207061636B6574206C656E67746E
:109750006820697320746F6F206C6F6E6720627968
:109760002025752F2575206F63746574732E000096
:109770005468652072657175657374656420636FE4
:109780006D62696E6174696F6E206F662054582037
:10979000616E64205258207061636B6574206C6543
:1097A0006E6774687320697320746F6F206C6F6EBE
:1097B00067206279202575206D6963726F73656318
:1097C0006F6E64732E00000073645F626C655F6788
:1097D000617474635F65786368616E67655F6D74FB
:1097E000755F72657175657374282920726574756B
:1097F000726E65642025732E0000000073645F6242
:109800006C655F67617474735F65786368616E67C8
:10981000655F6D74755F7265706C7928292072655B
:109820007475726E65642025732E000000000000C0
:1098300000000000770A000000000000770A000026
:10984000000000007ADA000000000000417939B120
:1098500000F25221087818B9887810B101207047B9
:109860000020704770B5044604F50D760D46B188AA
:109870003068012202F02BFE00B1057004F13C02B9
:10988000314604F1540072DF70BD80F8301070472B
:109890002DE9F04104465FEA010814BF002C0E20B8
:1098A00069D008F17A000178012904BF807F01287E
:1098B00031D008F19C07786804281CBF3968042956
:1098C00029D00020A07008F17801201D2C22FDF77E
:1098D00091FD04F124060020307304F50D75B8687D
:1098E00030610721F868706104F150074FF6FF708E
:1098F000A8822D6104F24A2002F0F8FD207808B910
:10990000FF21397104F155002860307801280CBF1F
:10991000EE201F2001E007202DE0A88004F50E7244
:1099200004F15501404602F001FD20BB04F2431151
:10993000A96004F51072307801280CBFEE201F20BA
:10994000A88108F13C0002F0F1FCA0B90120787078
:1099500004F13C02A069B08400210120307600208F
:10996000F06138706069306204F1540072DF10B940
:10997000012020700020BDE8F08100002DE9F843AF
:1099800007460D46387808B90820E1E007F24A2872
:10999000BD700721404602F0A9FDB87907F51176A0
:1099A00007F1240410B1B978012906D0F87968B11B
:1099B000B878012818BF022808D1206928B10121F0
:1099C000717308202169884700E0707300217818BE
:1099D00090F84B02002840F0BD80491C0629F6D3C0
:1099E0006D1E032D18D8DFE805F002090F13BA79B0
:1099F00022B1217811B938B101200EE0F97900299E
:109A00001CBF0028022008D1387A08B1032004E0E6
:109A1000787A08B1042000E00020B870206980B195
:109A2000B878032818BF04280BD1797949B1B07BE5
:109A300038B9002131740120F0730720216988476B
:109A400001E00020F073182107F13C0001F016F846
:109A50000120207607F15005A06801281CBF0228CC
:109A600001206870207830B1A06801281ABF022850
:109A700001206068A8700020287007F50D79B8787B
:109A8000042853D8DFE800F050030F2137000120ED
:109A90006073002030602062C4F81C8002202076B1
:109AA0008020A08442E0022060732078002819BF43
:109AB00007212176032020763869A08400203060B9
:109AC000C4F81C80F868206230E078692062B869C8
:109AD000A0842078002819BF062121760120207655
:109AE0003846FFF7B3FE20B100F036F8F0B9052094
:109AF00016E0032014E0F8692062386AA084207818
:109B0000002819BF06212176012020763846FFF76C
:109B10009DFE20B100F020F840B9062000E00420AE
:109B20006073C6F8009001E000206073B87850B10F
:109B3000316807F13C0207F1540072DF40B9217B24
:109B4000287973DF20B9216909B1607B884700203B
:109B5000BDE8F283012043E7022028700421384643
:109B600080E61CB502880C46102A04F5127104D058
:109B7000112A08D0262A11D013BDC27B012A26D172
:109B80008088088013BD00228A72808809888842F4
:109B900004BF207900281AD101210DE0007A0128A4
:109BA00018BF022813D1A078401C052190FBF1F1C9
:109BB00001EB8101401AC1B22046FFF7DFFE002809
:109BC0001CBFA16B002902D0BDE81C40084713BD93
:109BD000704710B5044604F150010122087974DF82
:109BE00004F252200270002282700A700621204680
:109BF000FFF738FE48B9A1782046FFF7BFFE0028DE
:109C00001EBFA16B00298847002010BD38B58AB05F
:109C100004460D46002000906A46A988606902F05B
:109C200068FC02A800210022C0E9001201A802215C
:109C3000ADF808100390ADF80A20218AA88802AA7E
:109C4000ADDFC8B9A069B8B1039802F083FC98B140
:109C5000009808B101210170182104A800F00EFF3E
:109C600002208DF810000594A888ADF8180000981F
:109C7000079004A8A16988470BB030BD30B50546F0
:109C80000C4687B0A18868696A4602F032FC00F091
:109C900033F80295A088ADF80C000098049029894B
:109CA000E088884204BF218A022913D1009808B3B2
:109CB00004F1120002F04EFC20B10099012008705E
:109CC000022102E00099087003218DF80410A969AF
:109CD00081B10DE0A98988420CD1A96951B1002058
:109CE0008DF8040004F112020592208AADF81800E4
:109CF00001A8884707B030BD182101A800F0BEBEFA
:109D000030B504460D4687B0A98860696A4602F0FE
:109D1000F0FB80B90099087868B1FFF7EDFF0120EA
:109D20008DF804000294A888ADF80C000098049007
:109D300001A8A169884707B030BD0A0018BF0028F4
:109D400010D00188102904D0502905D0572906D0F9
:109D500070470146104659E7014610468EE7014616
:109D60001046CDE77047000030B58DB004460D4673
:109D70000DF1240045A11022FDF73CFB002C14BF7F
:109D8000002D0E2034D02868A061214609A862DF8A
:109D900000282DD120788DF802000121ADF80010A7
:109DA000A21C69460120A8DF002821D12021FFF74D
:109DB000A4FF022000F027F840F00C0000F01AF891
:109DC00004F10C02608801A902F0E1FB80B92021B6
:109DD000FFF793FF032000F016F840F0100000F0AA
:109DE00009F88DF81710221D608801A902F0CFFB39
:109DF0000DB030BD8DF811008DF810108DF81510D4
:109E00008DF816107047ADF80400F4202178ADF8F5
:109E100008008DF8061001219DF81100ADF80A1018
:109E20007047F0B5040085B00D4616461F4608BFC2
:109E30000E2028D060696A46394602F05AFB10BBF2
:109E40004FF6FF718F421ABF0098002805201AD0E4
:109E5000007808B9082016E03188F529A8BF072046
:109E600011DA01A80021002200238C4680E80E10A0
:109E7000A088ADF80400049501208DF80600039633
:109E800001A93846AEDF05B0F0BD00009ECADC2453
:109E90000EE5A9E093F3A3B50000406E80B502F093
:109EA00047FC04210348FEF787FF0349012048715E
:109EB00001BD0000CCE80200682F00200000000077
:109EC000012200F01F01DFF8183504E0012200F044
:109ED0001F01DFF810358A40400943F82020704701
:109EE000012200F01F01DFF80035F4E7490102000C
:109EF00081B007D5DFF8F42400F00F00104400F81B
:109F0000041C02E0DFF8E834195401B0704728B1AE
:109F10000FF21C51800141F001010847704710B554
:109F2000DFF8D014DFF8D0444FF4003008604FF46D
:109F30008031DFF8C804016401600120206000F076
:109F4000C0F8012161600020DFF8B444A06000F097
:109F5000B8F80020A07010BD1420B7E72DE9F84F25
:109F6000DFF89C74DFF89C548046786800904FF0CE
:109F7000000900E07E60B8F1000F7DD04646D6F8BB
:109F80001C8031E0A346E469002C73D08442F9D1EF
:109F9000A34502BFC8697860002808D1DFF86814BB
:109FA000012008600021F870B96000F08AF821688B
:109FB000E069CBF81C0010B102688918016078686C
:109FC000824557D04FF0010954E0307C002853D12E
:109FD0008A687260C868B0600869F0604869B061FA
:109FE000F87808B100217160B8687168DFF81C3436
:109FF0000A1A22F07F429A4203D2B0688218326075
:10A0000008E0401AB16820F07F40884234BF081A47
:10A010000020306000207060B060012030740020AB
:10A02000F06179680029A5D008683268904203D3AE
:10A03000801A0860F1619DE70846036893423AD2AE
:10A040000146C069D21A0028F7D136E0B9F1000FF5
:10A0500002BF78680099884214BF01200020BDE843
:10A06000F28F786800281FBF00210174C0697860F2
:10A07000F7D101E000203074287869788842E5D073
:10A08000024613461820291D43431944521CAB783D
:10A09000D0B2984208BF00222A700A784868012A84
:10A0A000064692D00CD3032ADBD009D279688B46BE
:10A0B0008A465C4668E79B1A03603260F061CE61B5
:10A0C00059E72F2023E72DE9F843DFF83443606890
:10A0D000002839D00568DFF838633768D4F808807D
:10A0E000A7EB080020F07F4000F10309A07890B9A9
:10A0F000DFF820034FF48031016401601120FFF785
:10A10000EFFE1120FFF7DCFEC34901200860FFF7D6
:10A11000D8FF0120A0704D4538BF4D46454425F07D
:10A120007F45F563ED1B3068C71B27F07F4725F09F
:10A130007F45FF1CBD420AD23068F063FFF7C1FFC4
:10A14000BDE8F2431120C1E6BDE8F143E7E6BDE812
:10A15000F1832DE9F041AA4C94F800C06378A1681E
:10A160006068002200269C450F46804612D00CF104
:10A17000010C5FFA8CF3022B08BF944604F10C0328
:10A180005FFA8CFE53F82E30591821F07F41A16000
:10A19000012101E00023002184F800C0F9B114E09E
:10A1A0005B1A8E190021CCF800108646DCF81C00E2
:10A1B000DCF80C1049B1F519CCF81C2025F07F45CE
:10A1C000CCF80450CCF80810724638B18446DCF85C
:10A1D00000108B42E4D2CB1ACCF80030012660602C
:10A1E0001046FFF7BBFE00280EBF002E4046FFF7CB
:10A1F0006AFF0020E070BDE8F08110B581494A781F
:10A200008C78521CD3B2A34208BF00220C78D3B280
:10A21000A34201D1002010BD027018204A784243A9
:10A220008818001D10BD2DE9FC41804600240D4614
:10A2300016461F4600F03CF80DF10100FFF7DDFF68
:10A2400008B904240BE001210170C0F804807049B2
:10A2500009688160C5600661476100F024F89DF8D7
:10A26000000001F06AFC0CB9FFF776FE2046BDE85D
:10A27000F6817CB5054600240E4600F019F80DF174
:10A280000100FFF7BAFF08B9042403E00670456037
:10A2900000F009F89DF8000001F04FFC0CB9FFF741
:10A2A0005BFE204676BD9DF8010056494870704718
:10A2B0008DF80040684601F023BCF8B55748504D72
:10A2C0000021016441648164C164016041606C6883
:10A2D00044B34F480068AF68C71B002627F07F478C
:10A2E000206887420CD33F1A86192146E469087C0E
:10A2F00020B1002288690A7449698847002CEFD18F
:10A3000068782978814201BF401C6870C0B2022879
:10A3100004BF00206870687805EB8001CE60BDE85E
:10A32000F14019E6F1BD14E738B5FFF7F8FD3548FF
:10A33000334C374D002101800B218170002060607B
:10A34000207060701420FFF7CBFD06211420FFF76A
:10A35000CDFD1420FFF7B4FD002068600621112018
:10A36000FFF7C4FD2868A060002032BD10B5254C61
:10A37000A37843B1130018BF002801D1072010BDF6
:10A380000368187C08B1082010BD00241C7459749F
:10A390005A6110BD10B51B4C1346A278002A18BF95
:10A3A000002805D0052901D2072010BD42690AB94D
:10A3B000082010BD427CBDE81040012A0CBF0A46AF
:10A3C000002230E70F4A9178002918BF002801D0F9
:10A3D000416909B90820704700220274022148E748
:10A3E00000E100E000E200E080E200E018ED00E0C3
:10A3F00000E400E080E100E00410014008130140A7
:10A40000483E0020D037002008100140FFFF7F00A9
:10A4100004150140041301400010014000110140E7
:10A42000000000000000000000000000000000002C
:10A430000338FDD87047000080B506480021417000
:10A440000161BFF35F8F001D03A102F0C6F9002078
:10A4500002BD0000843E002078E7020090E7020081
:10A46000040000002028014604DA4D48C84000F0EE
:10A4700001007047402808DA0122A1F1200012FAF9
:10A4800000F018BF0120C0B27047012070470000E3
:10A490001FB5044651A1684602F09FF902E06846E4
:10A4A00002F09FF9029A3AB151681268204690472B
:10A4B0000028F4D1112000E0002004B010BD0000FD
:10A4C0001FB5044648A1684602F087F906E05168C6
:10A4D000126820469047684602F083F9029A002AE3
:10A4E000F5D11FBD80B51620FFF7BCFF28B942F299
:10A4F0000100BDE80240FEF7C5B82A4800784009CF
:10A50000082803D2EC21C140C80702D442F202005D
:10A51000EFE72549886820B10A6842F480020A60A2
:10A5200001BD2249FFE74FF48000086001BD000033
:10A530003EB51F4D287808B108203EBD0121A97005
:10A54000FFF7A6FF112820D00020FFF7B9FF00BFBA
:10A550002BA00168019100228DF80020684601F0CF
:10A56000CFFA144901A810DF0446401E8041C00FF5
:10A5700000F00DF80CB120463EBD0020A8706870B8
:10A58000FFF7B0FF0120FFF79BFF00203EBD2870C2
:10A590009DF8000001F0D1BA05480078704700002E
:10A5A000FC06FFBD16E400E0983E002000E100E05C
:10A5B000EC3E0020B1AD0200E0B500BF0DA1684641
:10A5C00002F00BF905E0486809688847684602F020
:10A5D00008F902990029F6D107BDEDE7E8E6020087
:10A5E000F8E6020008000000F8E6020008E70200B2
:10A5F0000800000008E7020018E702000800000059
:10A60000010000077FB506460C0008BF0E2071D080
:10A610007248734D20600021684600F079F80621E9
:10A620008DF800608DF80200ADF8041069462268CC
:10A63000202069DF6B4A551BED082D0445F001050C
:10A6400028B101F017FC024669A100F055F800F0AE
:10A650005DF88DF80100ADF80210694622684020CF
:10A6600069DF30B101F006FC4FEA000272A100F090
:10A6700043F800F044F8F7208DF80060ADF80200D0
:10A6800069462268232069DF28B101F0F3FB024606
:10A690007CA100F031F800F039F88DF8000069462F
:10A6A000226869DF28B101F0E5FB024687A100F0CE
:10A6B00023F800F024F84FF4B06000906946226857
:10A6C000A12069DF28B101F0D5FB024692A100F07C
:10A6D00013F800F014F88DF8001069462268A020E5
:10A6E00069DF30B101F0C6FB4FEA00029FA100F024
:10A6F00003F8002004B070BD2846FEF73BBA684658
:10A7000000210022002380E80E00704768460021E7
:10A710000022002380E80E00012070472DE9F0415F
:10A7200006462F4D376860DF04462E48451BED086E
:10A7300030682D04874217D245F00208A0A1404698
:10A74000FEF715FAD6F80030A9A13A464046FEF7C2
:10A7500017FA2548B3A102683068920202F100524C
:10A76000121A4046FEF706FA1CB92049012008706B
:10A7700009E0204601F07EFB4FEA0002B4A145F05B
:10A780000100FEF7F7F92046BDE8F081174900B552
:10A790000878ADF5017D88B903E0052818BFFDF7FD
:10A7A00071FF0DF5017D00BD5168126804A8904746
:10A7B00001A802F016F8039A002AF5D14FF4FA70B6
:10A7C000ADF80000694604A861DF0028E5D100BFAC
:10A7D000A7A101A802F001F8EDE70000982A0020E7
:10A7E0000CE502003CE502000C010010F03E0020E8
:10A7F00073645F626C655F6366675F736574282965
:10A800002072657475726E656420257320776865A3
:10A810006E20617474656D7074696E6720746F204A
:10A8200073657420424C455F434F4E4E5F4346472D
:10A830005F4741502E00000073645F626C655F6388
:10A8400066675F73657428292072657475726E651A
:10A8500064202573207768656E20617474656D705F
:10A8600074696E6720746F2073657420424C455F75
:10A870004741505F4346475F524F4C455F434F55FA
:10A880004E542E0073645F626C655F6366675F732E
:10A89000657428292072657475726E65642025734D
:10A8A000207768656E20617474656D7074696E6779
:10A8B00020746F2073657420424C455F434F4E4EA9
:10A8C0005F4346475F474154542E000073645F6204
:10A8D0006C655F6366675F736574282920726574B1
:10A8E00075726E6564202573207768656E206174CB
:10A8F00074656D7074696E6720746F207365742061
:10A90000424C455F434F4D4D4F4E5F4346475F5668
:10A91000535F555549442E0073645F626C655F63F5
:10A9200066675F73657428292072657475726E6539
:10A9300064202573207768656E20617474656D707E
:10A9400074696E6720746F2073657420424C455F94
:10A9500047415454535F4346475F415454525F54F8
:10A9600041425F53495A452E0000000073645F6204
:10A970006C655F6366675F73657428292072657410
:10A9800075726E6564202573207768656E2061742A
:10A9900074656D7074696E6720746F2073657420C0
:10A9A000424C455F47415454535F4346475F5345CC
:10A9B00052564943455F4348414E4745442E0000A7
:10A9C000496E73756666696369656E742052414DA0
:10A9D00020616C6C6F636174656420666F722074B3
:10A9E000686520536F66744465766963652E000060
:10A9F0004368616E6765207468652052414D20731D
:10AA000074617274206C6F636174696F6E2066721A
:10AA10006F6D203078257820746F20307825782E5F
:10AA2000000000004D6178696D756D2052414D2028
:10AA300073697A6520666F72206170706C696361FA
:10AA400074696F6E20697320307825782E000000BD
:10AA500073645F626C655F656E61626C6528292056
:10AA600072657475726E65642025732E0000000097
:10AA700024E7020044E7020008000000002201F081
:10AA8000C3BEFEE791490A89824202D101F1080062
:10AA9000704700207047F8B586881746BC19B24247
:10AAA00028BF3746F51BC2881F4607EB020C9342AE
:10AAB00028BF1746D61B4A8803889A4224BF40887D
:10AAC000904209D38888A84228BF844204D3C8880A
:10AAD000B04228BF844501D20020F2BD0120F2BD62
:10AAE0007B49896982B009B102B0084702B070475A
:10AAF00038B5044680B2FFF7C5FF020027D0744D79
:10AB0000107A297B88420DD202F10A01A0B275DFCA
:10AB100020B111281BD0FFF7E3FF31BD107A401C94
:10AB2000107231BD00211172287C38B13B21A0B2D6
:10AB300076DF00281CBF0828FFF7D2FF696931B112
:10AB400000208DF80000ADF802406846884731BD0E
:10AB500070B5040001D10E2070BD5D4E3046214617
:10AB60001C22FCF747FC594D35602068A8B17ADFFC
:10AB7000B8B9216828460822FCF72CFC4FF6FF7074
:10AB8000288105F11C00E8600021524A05F10C0003
:10AB9000FFF7ECFB28B1032070BD28467BDF0028BF
:10ABA000ECD070BD1CB50B460246597A484C59B9D9
:10ABB000187A002858680CBF6168A168FFF7EAFBA3
:10ABC00068B1FFF78DFF13BD00201872616931B1C4
:10ABD00001208DF80000ADF802206846884713BDBB
:10ABE0002DE9F84306463A4F3088102840F2F31812
:10ABF0004FF6FF7506D0112829D0122850D05028C2
:10AC000032D061E0F07BB6F8049001285CD1284690
:10AC1000FFF738FF040008BF04203ED0A4F80090DE
:10AC200000202072082204F10A002849FCF7D2FB18
:10AC30002B46424606F1100104F10A00FFF72BFFF4
:10AC40006072F88900283FD12146484639E0B08833
:10AC5000FFF718FF040037D06068FFF7B3FB08B1B7
:10AC6000FFF73EFF25802FE0F088F989884204BF76
:10AC7000308A022828D1B5882846FFF703FF040050
:10AC800022D006F1120001F065FC10B121462846E1
:10AC900017E06068FFF796FBB0B1BDE8F2431FE72D
:10ACA000B7883846FFF7EEFE04000DD02B4642462B
:10ACB00006F1080104F10A00FFF7EDFE607221467B
:10ACC0003846BDE8F4436DE7BDE8F183883D0020D8
:10ACD000143E0020F1AA02000EB4C0B5024603A83B
:10ACE00000210190009101AB0121044878440C300F
:10ACF000FBF786FA06BC5DF810FB00BF693B00005D
:10AD0000C0F3C75181B1FF2906D0C110400721F01F
:10AD1000E04101F16051704741020CBF40F4E00195
:10AD20006FF000410020704700F0004100020AD09F
:10AD3000B0FA80FC00FA0CF001F16051A1EB0C516B
:10AD400001EBD0214005704701F000428B1AA3F1BE
:10AD50006051B1F5801F0ADBB1F17F6F1FD242EA6B
:10AD6000C102C10071F1004142EB507070470B15F8
:10AD7000C3F10903212B10D2890241EA90518002CC
:10AD80000128494141F0004121FA03F0C3F12003B9
:10AD9000994071F1004150417047100070476FF0C9
:10ADA000000013EB103F5CBF000E42EAC05070473A
:10ADB00010B572B6FEF729F8FDF7ECFE0028FBD1BE
:10ADC0001048114C1149041BE408240444F001000C
:10ADD000FDF7CDFE0E480168CA0700D500BE0D493B
:10ADE00044F00200FDF7C3FEBFF34F8F0A490B4842
:10ADF0000A6802F4E06202430A60BFF34F8F00BFAB
:10AE0000FDE700BF24E502000CE502002CE802008B
:10AE1000F0ED00E038E802000CED00E00400FA0577
:10AE200081B00022425040580090009901B0704714
:10AE300040581DE100F20C5001E000F5A1600160F6
:10AE40008260704730B5039D049C41EA420141EAAB
:10AE5000830141EA0521DFF81C2441EA044142F85C
:10AE6000201030BDE0B500F00BF8012105E0E0B5A1
:10AE70000B460021002201910092FFF7E3FF07BD7E
:10AE8000002101910091002301227047F8B50D4681
:10AE900004462868DFF8E073012610F1010F05D0A1
:10AEA00006FA00F038602868FFF7DCFF686810F1E8
:10AEB000010F1CBF0021FFF7DAFF2068A96900F22B
:10AEC000245211606B7D297D0B4393646A68296865
:10AED000FFF7B0FF287D012815D1A86810F1010FF8
:10AEE0001CBF0021FFF7C3FFE86810F1010F04D079
:10AEF00086403E60E868FFF7B5FFAA68E968206809
:10AF0000BDE8F84099E7F1BD38B504460D46206824
:10AF10004FF48871FFF784FF20684FF49071FFF7BA
:10AF20007FFF20684FF49271FFF77AFF20684FF49B
:10AF3000A271FFF775FF2068DFF84013C0F8041313
:10AF4000000B690142B2002A07D5DFF8342300F074
:10AF50000F00104400F8041C02E0DFF82833995475
:10AF600001222168DFF82033090B01F01F0049B2EC
:10AF70008240490943F8212031BDF8B504460D4609
:10AF800016462179DFF80403242212FB01F2871808
:10AF900097F8200008B10820F2BD0FF2F8222068CF
:10AFA00052F8211001F04DFC08B11120F2BD2946E4
:10AFB0002046FFF76BFF7E6028693860786818B11B
:10AFC000297F2046FFF7A0FF21680820C1F800056F
:10AFD0000020B861F8617861012087F82000002026
:10AFE000F2BDF8B5054617462A790C462420A74934
:10AFF00042438E1804F06040B0F1005F2ED1284625
:10B0000000F030F860BB7761B4604FF4907128684D
:10B01000FFF706FF28684FF4AC71FFF701FF706976
:10B020002968B36801F24452002713605060012080
:10B030008860706880B928684FF49071FFF7F8FE57
:10B04000044628684FF4AC71FFF7F2FE0443F2D0D7
:10B0500000B10F27002070613846F2BD1020F2BD0C
:10B060001120F2BD027989492420424388184069A1
:10B0700000B10120C0B270472DE9F84F05464FF0EE
:10B0800024082879DFF8049218FB00F009EB000788
:10B090000E4606F06040B0F1005F14D178680024DD
:10B0A0004FF4047A20B12B6803F54173C3F804A070
:10B0B0009346BA696AB1FB693BB110B12868C0F820
:10B0C00004A3112050E010204EE0012439615846BD
:10B0D00003E0C7F818B0F96000204FF48871F861F8
:10B0E00000272868FFF79CFE28684FF4A271FFF73D
:10B0F00097FE296801F234500660C0F804B014B914
:10B100000120086005E0D1F8000240F02000C1F8FD
:10B11000000209F10402287918FB00F0105800BB66
:10B120002E4630684FF48871FFF782FE044630687F
:10B130004FF4A271FFF77CFE054630684FF4927120
:10B14000FFF776FE2C430443EBD0327909F1180166
:10B1500018FB02F841F8087000B103271DB10F2752
:10B1600001E0C1F804A33846BDE8F28FF8B5034604
:10B17000012002918DF800000192684619685A6812
:10B18000904705B000BD7FB50C464FF4927106465E
:10B19000FFF74EFE06F23C55B8B14FF4927100F045
:10B1A00063F802208DF800000021D6F88004C6F86C
:10B1B0008004039028680290E0680190A161E16139
:10B1C000684621686268904721E04FF488713046F4
:10B1D000FFF72EFED8B14FF4887100F045F82968CA
:10B1E000A069814213D1E268E06960B1D6F800320B
:10B1F00023F02003C6F80032E069A0612069E06016
:10B200000020E06100E0A0612046FFF7AFFF4FF4AF
:10B21000A2713046FFF70CFE68B14FF4A27100F046
:10B2200023F8A06938B10021A161E16120462968B5
:10B23000E268FFF79BFF4FF490713046FFF7F8FD8F
:10B2400088B14FF4907100F00FF8606958B1286927
:10B25000029000218DF80010A0680190616168469D
:10B260002168626890477FBD3046D9E507490848A4
:10B2700089E7000000070050080500501003020095
:10B2800018ED00E000E400E000E100E0F03D002007
:10B29000002000406DB2020081B0002242504058B0
:10B2A0000090009901B07047405838E1D0F804038D
:10B2B000084018BF0120C0B2704700F20C508260F5
:10B2C0000160704700F5A16001608260704730B591
:10B2D000039D049C41EA420141EA830141EA0521C0
:10B2E000DFF8D02441EA044142F8201030BDE0B537
:10B2F00000F00BF8012105E0E0B50B46002100222B
:10B3000001910092FFF7E3FF07BD00210191009139
:10B31000002301227047F8B50D4604462868DFF87F
:10B320009874012610F1010F05D006FA00F038607C
:10B330002868FFF7DCFF686810F1010F1CBF0021CF
:10B34000FFF7DAFF2068A96900F2245211606B7DD3
:10B35000297D0B4393646A682968FFF7AEFF287D57
:10B36000012815D1A86810F1010F1CBF0021FFF7BB
:10B37000C3FFE86810F1010F04D086403E60E86822
:10B38000FFF7B5FFAA68E9682068BDE8F84099E7CB
:10B39000F1BD38B504460D4620684FF48E71FFF7B5
:10B3A0007BFF20684FF4A271FFF776FF2068DFF87B
:10B3B0000C14C0F80413000B690142B2002A07D52F
:10B3C000DFF8FC2300F00F00104400F8041C02E03A
:10B3D000DFF8F033995401222168DFF8EC33090BD0
:10B3E00001F01F0049B28240490943F8212031BDD4
:10B3F0002DE9F04104460D4690462179DFF8CC0353
:10B400002C2212FB01F2871807F12906707808B187
:10B41000082023E00FF2BC32206852F8211001F01E
:10B4200010FA08B1112019E029462046FFF773FFF2
:10B43000C7F8048028693860786818B1297F2046E9
:10B44000FFF7A7FF21680420C1F800050020B861BC
:10B45000F86130707861012070700020BDE8F081E3
:10B4600038B50D4604464FF48E71FFF715FFA868F6
:10B47000296A405C2A6A521C2A62C4F81C0531BD44
:10B48000F8B5054617462A790E462C20DFF83C13FE
:10B4900042438C18284600F03BF808B11120F2BD59
:10B4A0006761A660206284F828004FF48E712868D6
:10B4B000FFF7F2FE28680121816000262146FFF790
:10B4C000CFFF606868B92F6811E028684FF48E716B
:10B4D000FFF7EAFE0028F8D029680120C8600020A4
:10B4E00060613046F2BD21463846FFF7B9FF206A59
:10B4F00061698842E9D24FF48E713846FFF7D4FE75
:10B500000028F0D194F828000028F4D00F26E6E7B0
:10B510000279DFF8B8122C2042438818406900B144
:10B520000120C0B2704710B500F090F820684FF4C9
:10B530008471FFF7B1FE21680120086010BD38B5A5
:10B540000D460446A86900284FF48471204604D1B2
:10B55000FFF7A2FED4F8180531BDFFF79DFE686A1B
:10B56000D4F81815EA681154686A401C686231BD45
:10B570002DE9FC4107462C203C79944B44431E198D
:10B58000002370684FF4017418B13D6805F54170EF
:10B590004460B06960B1F36933B1706810B1396863
:10B5A000C1F8044311204FE031610123F26103E04F
:10B5B000B261F1607062F06196F82900034304BF44
:10B5C0003846FFF7B0FF70683A68002839D14FF469
:10B5D000A2711046FFF760FE38684FF49271FFF7D2
:10B5E00063FE054638684FF48471FFF75DFE04463C
:10B5F00038684FF4A271FFF757FE804648EA04040A
:10B600002C43E9D058EA050007D138683146FFF7E6
:10B6100096FF706AB1698842DED30020B0610DB137
:10B62000032011E0B8F1000F18BF0F200CD196F8DD
:10B6300029003968002807BF01224A6001220A60F8
:10B6400001E0C2F804430020BDE8F68104464FF44F
:10B650009271206820E6F8B50346012002918DF82A
:10B6600000000192684619685A680CE0F8B5024675
:10B6700000208DF800000291002190680190516136
:10B68000684611685268904705B000BDF8B584B0AF
:10B6900005460C464FF40071FFF708FE04F128063A
:10B6A0004FF4017718B34FF4927100F07DF8F0B1C8
:10B6B0004FF492712846FFF7EFFDC5F808737078D4
:10B6C00008B90121696002208DF800000021D5F839
:10B6D0008004C5F880040390A0690290E06801909E
:10B6E000A161E161684621686268904729E0042110
:10B6F0002846FFF7DBFD20B34FF4847100F054F8C7
:10B70000F8B121462846FFF71AFFA069616A88420E
:10B7100017D1E06940B1E268616AA0612069E06028
:10B720000020E061606209E0707808B90121696079
:10B73000C5F808730020E268A061616A2046FFF73F
:10B740008AFF4FF48E7100F02FF8A0B1206A616972
:10B75000884206D2307820B921462846FFF780FE7D
:10B7600009E04FF48E712846FFF796FD616911B12B
:10B770002046FFF77BFF4FF4A27100F015F888B167
:10B780004FF4A2712846FFF787FD707808B10121B8
:10B790002960A06930B10021A1612046E268616A98
:10B7A000FFF759FF05B0F0BD28467DE50749084879
:10B7B0006CE7000000070050080500508000020000
:10B7C00018ED00E000E400E000E100E0C43D0020EE
:10B7D00000200040ADB7020010B50368C46882883D
:10B7E00014401955C168491CC16010BD10B50368EB
:10B7F0008468808861180140595C117010BD10B5D3
:10B800000A4604460021FFF7F1FFA068401CA06033
:10B8100010BD10B509B90E2010BD130002D0541E82
:10B82000144201D0092010BD0160511E8180002109
:10B830008160C160002010BD10B58268C368848833
:10B840009A1A944203D3FFF7C7FF002010BD0420CB
:10B8500010BD80B58268C3689A1A03D0FFF7CFFF86
:10B86000002002BD052002BDF8B500E0F8B5027861
:10B870008DF800204368019382688DF80820C06825
:10B88000194A039002EB810268469168526890471A
:10B8900005B000BDF8B5044688B02678124F07EB16
:10B8A0008600154645600A6982602022487FB855A7
:10B8B0006846FBF79FFD04962178785C40B1002D27
:10B8C00014BF0A4A00226946201DFFF756FB08E014
:10B8D000002D14BF064A0022694604F10C00FFF750
:10B8E00087FD09B0F0BD0000A43E002069B8020049
:10B8F0006DB8020000F0C6BF2DE9F04105460F46C5
:10B900002E8A00F0D6FF361F040021D000202071BF
:10B91000F7190120FF1C6071A046B7FBF6F7E6801F
:10B92000FFB27F1EC8F80050002607E06179491C6D
:10B930006171C8F8000005608046761CBE4209D2DD
:10B94000284600F0B6FF0028F0D1204600F005F8A8
:10B95000002000E02046BDE8F081F8B501460D4624
:10B960004C79601E002200E0521C2D688242FBD3FD
:10B97000002605E00F68284600F0BDFF3946761C1A
:10B98000A642F7D3F1BD0121001D00F097B81CB508
:10B9900004460121201D00F09DF800909DF8000054
:10B9A00018B92046BDE81640D7E713BD2DE9F0478A
:10B9B0001446B0F806804279256846465643361F3D
:10B9C0005F1903F1040CBE42BCFBF8F234BFF31A5A
:10B9D0002B4608FB12CC2360002A01E00068521EAF
:10B9E000FCD1A8EB0C02089F9A4693424FF0000945
:10B9F00088BF92460E4605461C46BCB105EB0C00BE
:10BA0000001D06EB0903390052460EBF19460146D8
:10BA10001846FBF7DFFC2D68A4EB0A04D14444452B
:10BA20004FF0000CA246E8D9C246E6E7BDE8F08731
:10BA3000E0B50192002202E0E0B5019201220092FD
:10BA400001AAFFF7B3FF07BD806800218160016193
:10BA50004161C160416001607047FEE710B5024678
:10BA600052E8000F0C4642E8004393F0000FF7D174
:10BA700010BD000010B5024652E8004F44EA010034
:10BA800042E8000393F0000FF6D110BD10B5024656
:10BA900052E8000F00EA010442E8004393F0000F6F
:10BAA000F6D110BD10B5024652E8004F04EA01007D
:10BAB00042E8000393F0000FF6D110BD10B5024626
:10BAC00052E8004F04EB010042E8000393F0000F3E
:10BAD000F6D110BD10B5024652E8004FA4EB0100AC
